:020000040800F2
:1000000068D800205D0200089F1D0008DF1A000864
:100010009D1D00082F080008893800080000000016
:100020000000000000000000000000009D0100082A
:100030006308000800000000F90100080934000806
:1000400077020008770200087702000877020008AC
:10005000770200087702000877020008770200089C
:10006000770200087702000877020008770200088C
:10007000770200087702000877020008770200087C
:10008000770200087702000877020008770200086C
:10009000770200087702000877020008770200085C
:1000A00077020008CD3400087702000877020008C4
:1000B000770200087702000877020008770200083C
:1000C000770200087702000877020008770200082C
:1000D0007702000877020008770200087D380008E0
:1000E000770200087702000877020008770200080C
:1000F00077020008770200087702000877020008FC
:1001000077020008770200087702000877020008EB
:1001100077020008770200087702000877020008DB
:1001200077020008770200087702000877020008CB
:1001300077020008770200087702000877020008BB
:1001400077020008770200087702000877020008AB
:10015000770200087702000877020008770200089B
:10016000770200087702000877020008770200088B
:1001700077020008770200087702000800000000FC
:100180007702000877020008DFF80CD000F0CEFA02
:1001900000480047E941000868D800202C4B196846
:1001A0000868B0E8F04F80F30988BFF36F8F4FF015
:1001B000000080F3118870470000000008480068C4
:1001C000006880F308884FF0000080F3148862B65E
:1001D00061B6BFF34F8FBFF36F8F00DF00BF00BF6B
:1001E00008ED00E0DFF80C00016841F470010160E7
:1001F000704700BF88ED00E0EFF30980BFF36F8F19
:10020000134B1A681EF0100F08BF20ED108A20E96A
:10021000F04F106009B44FF0500080F31188BFF325
:100220004F8FBFF36F8F04F0C9FF4FF0000080F3D2
:10023000118809BC19680868B0E8F04F1EF0100F6B
:1002400008BFB0EC108A80F30988BFF36F8F704746
:100250004C000020EFF305807047000006488047FF
:1002600006480047FEE7FEE7FEE7FEE7FEE7FEE79B
:10027000FEE7FEE7FEE7FEE7BD340008890100085F
:100280002DE9F05F0546002092469B4688460646CB
:10029000814640241BE0284641464746224600F05E
:1002A0007CF853465A46C01A914110D3114618465D
:1002B000224600F063F82D1A67EB01084F462246EC
:1002C0000120002100F05AF817EB00094E41201ED2
:1002D000A4F10104DFDC484631462A464346BDE826
:1002E000F09F40EA01039B0703D009E008C9121FF1
:1002F00008C0042AFAD203E011F8013B00F8013BE0
:10030000521EF9D27047D2B201E000F8012B491E0B
:10031000FBD270470022F6E710B513460A460446A2
:100320001946FFF7F0FF204610BD00F0004230F004
:1003300000400AD0C10D01F56071C0F3160042EA19
:100340000151C20840071143704700200146704721
:1003500030B50B46014600202022012409E021FA95
:1003600002F59D4205D303FA02F5491B04FA02F592
:100370002844151EA2F10102F1DC30BD202A04DB65
:10038000203A00FA02F1002070479140C2F12003A8
:1003900020FA03F3194390407047202A04DB203AE7
:1003A00021FA02F00021704721FA02F3D040C2F195
:1003B000200291400843194670472DE9FE4F8046C0
:1003C00081EA0300C00F0C46009021F0004123F0A9
:1003D0000045B8EB0200A94105D2404621469046AF
:1003E0001C460B46024623F00040104347D0270D21
:1003F000C7F30A00C3F30A510290401A0190402843
:100400006BDAC3F3130040F4801B0098924620B1CE
:100410000023D2EB030A63EB0B0B01985946C0F1A2
:1004200040025046FFF7AAFF06460D465046594681
:10043000019A00F08DF910EB08006141002487EA71
:10044000115284EAE7731A4340D0009A62B3019ACA
:10045000012A4FEA075215DC001B61EB02014FF045
:10046000004202EA0752CDE90042001C41F580112A
:1004700032462B4600F08DF903B0BDE8F08F4046C0
:100480002146F9E7001B61EB0201001C41F58013D6
:1004900000185B412018A2F5001747EB030140EA62
:1004A000D570B6196D4111E06D084FEA360645EA80
:1004B000C0754FEA0752001B61EB0201001C41F5B9
:1004C000801149084FEA30000019514132462B464D
:1004D00003B0BDE8F04F00F04DB900980122400094
:1004E0000023D0EB020263EBE073009821464FEA51
:1004F000E074B8EB000061EB0401E9E783F000432E
:100500005BE781F0004158E72DE9FE4F81EA0304E3
:1005100004F0004421F0004100944FF0000B23F060
:10052000004350EA01045ED052EA03045BD0C3F3F7
:100530000A54C1F30A552C44A4F2F3340194A0FBED
:100540000254C1F3130141F48011C3F3130343F4C4
:10055000801301FB024400FB034E840A970A44EA1D
:10056000815447EA8357A4FB076802958D0A05FB6F
:1005700007854FEA932C04FB0C542705029D4FEA94
:10058000065847EA1637B5EB08056EEB070C870EE1
:10059000920E47EA811742EA8312A7FB0201B6EBEB
:1005A0000B0164EB00042B0D43EA0C335E1844EBA3
:1005B0001C50DA465146E7FB0201C5F313044FEA2B
:1005C0000B3343EA14534FEA0432019C43EA060317
:1005D000A4F10C040294009CCDE900B400F0D9F819
:1005E00003B0BDE8F08F00200146F9E72DE9F04D9A
:1005F00081EA030404F0004B21F0004514464FF05B
:10060000000A23F0004150EA050220D054EA01021A
:100610001DD0C5F30A570246C5F31303C1F31300F7
:10062000C1F30A5640F4801543F48013A7EB060883
:10063000101BD64608F2FD3873EB050002D308F113
:10064000010801E092185B41B8F1000F03DA0020C5
:100650000146BDE8F08D00204FF480110646844627
:100660000EE0171B73EB050705D3121B63EB0503A5
:1006700006434CEA010C49084FEA300092185B41EE
:1006800050EA0107EDD152EA030012D082EA0400D9
:1006900083EA0501084305D0101BAB4106D20122B5
:1006A000002306E000224FF0004302E06FF0010259
:1006B00053101AEB06004CEB085110EB0A0041EB0B
:1006C0000B01BDE8F04D00F055B8C1F30A52C1F37B
:1006D000130140F2FF3341F480119A4202DA002004
:1006E0000146704740F233439A42A2F2334202DCA1
:1006F0005242FFF752BEFFF741BE000030B5041E64
:1007000071F1000404DB4FF00044404264EB01014E
:10071000141E73F1000405DB1C464FF000435242E7
:1007200063EB0403994208BF904230BD064C074D6D
:1007300006E0E06840F0010394E8070098471034B1
:10074000AC42F6D3FFF724FD587500087875000811
:10075000202A06DBCB17203A41FA02F043EAE07385
:1007600006E041FA02F3D040C2F120029140084372
:100770001946704710B5141E73F1000408DA401CC6
:1007800041F1000192185B411A4301D120F00100B0
:1007900010BD2DE9F04D92469B4611B1B1FA81F2A0
:1007A00002E0B0FA80F220329046FFF7E7FD0446FF
:1007B0000F4640EA0A0041EA0B0153465A460843F5
:1007C00013D0114653EA010019D0C8F14002504637
:1007D000FFF7E3FD05460E46504659464246FFF7F1
:1007E000CDFD084305D0012004E020463946BDE890
:1007F000F08D0020054346EAE0762C4337430A9803
:100800006305E40AA0EB08000022FD0A44EA47540D
:100810000A3002D500200146E9E7010510196941B7
:10082000DDE9084500196941BDE8F04DA2E7FEE7A2
:1008300070B505464FF6FF7000224AF201040DE044
:10084000AB5C58400023C6074FEA500000D0604020
:100850005B1CDBB2082BF6D3521C92B28A42EFD358
:1008600070BD704772B6FEE730B5B3F5804F05D066
:100870006FF0704140F82210002030BD8C690B6889
:100880008D6823434C688989240144EA0524234365
:1008900043EA014150F82230014C23401943E9E773
:1008A0000000F0CF10B50A6850F8223023F00103A1
:1008B00040F822308C68082C23D000234A68224359
:1008C000CC681C430B6922431A434B690E4C1A43F4
:1008D000CB691A430B6A1A434B6A1A438B6A1A4351
:1008E000CB6A1A430B6B1A438B691343CA6B0968B3
:1008F0001A4350F82130A343134340F8213000201D
:1009000010BD4023DAE700007FFF0F0030B5D1E9CA
:10091000003443EA04138C688D89240244EA0544B8
:1009200023430C8A074D00EB820005EB045423435C
:100930000C7D6D0105EB0464896923430B4343601F
:10094000002030BD0000F0FF2DE9F0410446876D26
:1009500000F0A4F9064694F835000025022806D0D8
:100960008020606584F834500120BDE8F081206863
:10097000016821F0160101602068416921F08001C1
:100980004161206C08B9A06C20B12068016821F099
:10099000080101602068016821F0010101600CE09C
:1009A00000F07CF9801B052807D920206065032012
:1009B00084F8350084F83450D7E720680068C00711
:1009C000EED194F85C103F208840B860012084F894
:1009D000350084F834500020C7E790F8351002291C
:1009E00003D08021416501207047052180F8351032
:1009F0000068016821F001010160002070470000DB
:100A0000F0B587B014216846FFF784FC1E480168E2
:100A1000002937D1012101601C480024026842F0FE
:100A20000102026000680225CDE9001500F0010016
:100A30000C270326CDE90470CDE902466946144827
:100A400000F02EF84FF68070CDE9000502AA694645
:100A500082E8D0000F4800F023F84CF23370CDE963
:100A6000000502AA694682E8D0000B4800F018F899
:100A70006802CDE9000502AA694682E8D00007486D
:100A800000F00EF807B0F0BD140000203838024026
:100A90000014024000100240000C02400018024006
:100AA0002DE9F84FDFF8BCA10022012503264FF005
:100AB0000F090AF1040BAAF1040E00BF0B6805FA36
:100AC00002F42340A34270D10F7907F00307012FEE
:100AD00001D0022F16D187684FEA420806FA08FCB7
:100AE00027EA0C07D1F80CC00CFA08FC4CEA070CFA
:100AF000C0F808C04768A7430C79C4F300149440B9
:100B00003C4344600C79E443A4070AD0C4684FEA2C
:100B1000420C06FA0CF7BC438F6807FA0CF7274320
:100B2000C7600C7904F00304022C12D1D40800EB46
:100B3000840CDCF820405707FF0E09FA07F824EA76
:100B40000804D1F8108008FA07F848EA0408CCF83D
:100B5000208004684FEA420C06FA0CF7BC430F7978
:100B600007F0030707FA0CF7274307604C6814F4F3
:100B7000403F70D03C4C276847F48047276024688A
:100B800022F0030704F480440094384C07EB040C73
:100B9000DCF8084897074FEA177809FA08F7BC43CA
:100BA000334FB84202D1002724E054E0314FB8421D
:100BB00001D101271EE0304FB84201D1022719E0D0
:100BC0002E4FB84201D1032714E02D4FB84201D176
:100BD00004270FE02B4FB84201D105270AE02A4F26
:100BE000B84201D1062705E0284FB84201D10727B6
:100BF00000E0082707FA08F72743CCF80878DAF866
:100C000000405746D1F804C09C435FEACC2C00D585
:100C10001C433C60DBF800405F46D1F804C09C43B5
:100C20005FEA8C2C00D51C433C60DEF80040774620
:100C3000D1F804C09C435FEA8C3C00D51C433C6067
:100C4000084F083F3C68D1F804C09C435FEACC3CA5
:100C500000D51C433C60521C102AFFF42FAFBDE8A6
:100C6000F88F0000083C0140443802400030014049
:100C7000000002400004024000080240000C024054
:100C8000001002400014024000180240001C024004
:100C90000AB1816170470904FBE7000001488068E0
:100CA0007047000028000020024881680278114443
:100CB00081607047280000200B4810B5016841F49E
:100CC00000710160016841F480610160016841F4D4
:100CD00080710160032000F099F80F2000F006F801
:100CE00000F04AF8002010BD003C024030B5054637
:100CF0001C4887B00024016841F0010101600068D0
:100D000006A900F00100009001A800F02BF900F006
:100D100059F915494000B0FBF1F11548134A491E35
:100D2000026040F2E732C0E90324C0E901148461A3
:100D300000F072FB040012D10D4800F09BFB040090
:100D40000DD1192000F034F8102D07D200222946C9
:100D5000192000F03BF80748056000E0012407B0C7
:100D6000204630BD4438024040420F0000000140A0
:100D7000B00100202C0000200C4882B0016841F432
:100D800080410160006800F4804000900748001F27
:100D9000016841F0805101600068002200F080503D
:100DA00000900F21901E02B000F010B844380240AD
:100DB000002809DB00F01F0201219140400980005A
:100DC00000F1E020C0F8001170470000F0B40E4BB5
:100DD0001B680C46C3F30223C3F10705042D00D999
:100DE0000425191D072901D2002300E0DB1E01267E
:100DF00006FA05F1491E214099409E40761E164094
:100E00003143F0BC02F066BD0CED00E0064900F095
:100E1000070208684FF6FF03184040EA0220034A21
:100E200010430860704700000CED00E00000FA0578
:100E30002DE9F0470E46050065D0DFF81481D8F89B
:100E40000000F7B200F00700B04207D288F8007047
:100E5000D8F8000000F00700B04254D128683D4C9B
:100E6000810712D5400703D5206840F4E050206088
:100E70002878000703D5206840F46040206020688F
:100E8000A96820F0F000084320602878C0072DD022
:100E9000304968680839012812D0022813D0032885
:100EA00011D00968890700292DDA216821F0030192
:100EB00001432160FFF7F2FE814641F2883A0EE0DD
:100EC00009688903EFE709688901ECE7FFF7E6FEA7
:100ED000A0EB0901514502D90320BDE8F087206845
:100EE000696800F00C00B0EB810FEFD1D8F800106A
:100EF000404601F00701B14207D90770006800F0D1
:100F00000700B04201D00120E7E72878400705D567
:100F10002068E96820F4E050084320602878000742
:100F200006D52068296920F4604040EAC1002060AD
:100F300000F058F82168084AC1F30311515CC84019
:100F40000649086006480068FFF7D0FE0020C4E7A5
:100F5000003C024008380240605D00081C00002090
:100F60002C0000200F2202600C4A136803F00303D8
:100F70004360136803F0F0038360136803F4E053E5
:100F8000C36012684FF4E05303EAD20202610448DE
:100F9000006800F007000860704700000838024051
:100FA000003C02400448054900680968044AC1F34E
:100FB0008221515CC84070471C0000200838024064
:100FC000705D00080448054900680968044AC1F3D7
:100FD0004231515CC84070471C0000200838024074
:100FE000705D0008154810B5006810F00C02144838
:100FF00013D01449042A0FD0082A0ED10F4C241FF5
:101000002268236802F03F025B0207D52068C0F324
:101010008810A0FB010106E0084610BD2168C1F35D
:101020008811A1FB00010023FFF72AF92168C1F311
:101030000141491C4900B0FBF1F010BD08380240E5
:101040000024F40040787D012DE9F84F04006ED0B3
:101050002078DFF84C93C007A9F104054AD009F1C4
:1010600004000168C1F38101012908D00068C0F3C0
:10107000810002280AD1D9F80000400206D528686C
:10108000800337D560680028E1D033E06068B0F5B0
:10109000803F10D0B0F5A02F286810D020F4803009
:1010A0002860286820F4802028606068A8B1FFF7D5
:1010B000F5FD06460DE0286840F48030F4E740F482
:1010C00080202860F7E700BFFFF7E8FD801B642859
:1010D00073D828688003F7D50CE0FFF7DFFD0646DC
:1010E00005E000BFFFF7DAFD801B6428F0D8286810
:1010F0008003F7D42078DFF8AC8280074FF0000A35
:101100003ED5A748001D016811F00C0F08D00068FB
:10111000C0F3810002280BD1D9F80000400207D4A7
:101120002868800716D5E068012800D112E033E175
:10113000E068B8B10120C8F80000FFF7AFFD06462F
:1011400005E000BFFFF7AAFD801B0228C0D8286871
:101150008007F7D52868216920F0F80040EAC1002F
:1011600028600DE0C8F800A0FFF798FD064604E0EF
:10117000FFF794FD801B02281FD828688007F7D44A
:101180002078000722D5864F87486169703771B192
:1011900001210160FFF782FD064604E0FFF77EFDB6
:1011A000801B022809D838688007F7D50EE0C0F800
:1011B00000A0FFF773FD064605E082E0FFF76EFD35
:1011C000801B02287DD838688007F7D42078400734
:1011D00068D5DFF8CCB100270BF13C0BDBF8000041
:1011E000C0000BD4DBF8001041F08051CBF80010A8
:1011F000DBF80000012700F0805000906B4E306853
:10120000C00510D4306840F480703060FFF746FDB0
:10121000009005E0FFF742FD0099401A022850D8DF
:101220003068C005F6D55E4EA0686C3601280FD038
:101230000528306810D020F001003060306820F0C0
:1012400004003060A068B8B1FFF728FD00900FE0FF
:10125000306840F00100F4E740F004003060F7E748
:10126000FFF71CFD0099411A41F28830814266D88F
:1012700030688007F4D50EE0FFF710FD009007E01E
:10128000FFF70CFD0099411A41F28830814256D88F
:1012900030688007F4D42FB1DBF8001021F08051C2
:1012A000CBF80010A069C8B33D49091D0968C1F316
:1012B000810102294AD00228504607D0C8F86000B0
:1012C00000E03CE0FFF7EAFC04463BE04746C8F894
:1012D0006000FFF7E3FC064605E000BFFFF7DEFC19
:1012E000801B02282BD828688001F7D4D4E9070195
:1012F0000843A16A2E4A490802EB0141626A41EAA9
:101300008211084394F82C1040EA0161C9F80010DA
:1013100001203866FFF7C2FC044606E03EE000BF4D
:10132000FFF7BCFC001B022809D828688001F7D50C
:1013300034E000BFFFF7B2FC001B022802D90320F3
:10134000BDE8F88F28688001F4D427E00128F7D0A1
:10135000D9F80000E26900F4800191421CD1226AB0
:1013600000F03F01914217D147F6C071626A014017
:10137000B1EB821F10D1A26A4FF0FF3300F440316D
:1013800003EB5202B1EB024F06D194F82C1000F09F
:101390007060B0EB016F01D00120D1E70020CFE7F2
:1013A0000438024000004742800E4742007000406F
:1013B0000000FFFF70B515460E46040003D094F8F8
:1013C000490010B107E0012070BD002084F84800FA
:1013D000204600F01DF804F108012068FFF762FACA
:1013E0003146A2682068FFF791FAD4E90102294644
:1013F000236BFFF739FA2168A06851F8202042F0EA
:10140000010241F82020012084F84900002070BD2D
:10141000FFF7F6BA7047704710B5040003D094F890
:101420003D0010B107E0012010BD002084F83C0011
:10143000204600F01EF8022084F83D00211D20689F
:1014400002F04AF8012084F8460084F83E0084F84F
:101450003F0084F8400084F8410084F8420084F89A
:10146000430084F8440084F8450084F83D000020DF
:1014700010BD704790F83D10012901D00120704740
:10148000022180F83D100168CA6842F00102CA607A
:1014900000681149884214D0B0F1804F11D00F4933
:1014A00088420ED00E4988420BD00E49884208D09F
:1014B0000D49884205D00D49884202D00C49884226
:1014C00004D1816801F00701062903D0016841F0C9
:1014D000010101600020704700000140000400404D
:1014E00000080040000C00400004014000400140A2
:1014F0000018004070472DE9F04104460068C668B6
:1015000005694FF00007A90713D5B10711D5F91EDA
:10151000016101202077206880698007204602D081
:10152000FFF7E8FF04E000F07EF8204600F07CF8CA
:101530002777680716D5700714D521686FF0040067
:101540000861022020772068806910F4407F2046DF
:1015500002D0FFF7CFFF04E000F065F8204600F06E
:1015600063F82777280715D5300713D521686FF062
:1015700008000861042020772068C06980072046A1
:1015800002D0FFF7B7FF04E000F04DF8204600F06E
:101590004BF82777E80616D5F00614D521686FF0CA
:1015A00010000861082020772068C06910F4407F8F
:1015B000204602D0FFF79EFF04E000F034F82046FA
:1015C00000F032F82777E80708D0F00706D0216846
:1015D0006FF001000861204600F028F8280608D5C1
:1015E000300606D521686FF0800008612046FFF7BD
:1015F00011FF680608D5700606D521686FF0400017
:101600000861204600F01CF8A8060AD5B00608D5E7
:1016100021686FF0200008612046BDE8F041FFF727
:10162000FABEBDE8F08170477047000000680349CA
:10163000884201D1FFF738BB70470000000001402D
:101640007047704770470000F8B5016804460868A5
:10165000CA684B6910F00F0F4FF0000559D003F026
:10166000010602F49077374365D0C10705D0D10554
:1016700003D5616C41F001016164410705D5D907CB
:1016800003D0616C41F002016164810705D5D9077F
:1016900003D0616C41F004016164010707D502F0D9
:1016A0002001314303D0616C41F008016164616C39
:1016B00000293AD0800604D5900602D5204601F0D4
:1016C000A1FF20684069616CC0F38010090700D455
:1016D00060B3204601F06FFF20684069400621D5C5
:1016E0002068143050E8001F21F0400140E800124B
:1016F000002AF5D1E06BA8B172490165E06BFFF7F4
:101700006CF9002811D0E06B016D01B0BDE8F0402C
:10171000084783060FD593060DD52046BDE8F8404F
:1017200001F070BF2046FFF78DFFF8BD2046FFF7A0
:1017300089FF6564F8BD266B2023012E7ED1C60685
:101740007CD5D6067AD508684868009048694FF07D
:10175000020640064DD5E26B106840684FF4807772
:101760000004000C3AD0A18D814237D9E085D069C0
:10177000B8422DD020680C3050E8001F21F4807151
:1017800040E80012002AF5D12068143050E8001F0C
:1017900021F0010140E80012002AF5D12068143040
:1017A00050E8001F21F0400140E80012002AF5D166
:1017B00084F84230256320680C3050E8001F21F087
:1017C000100140E80012002AF5D1E06BFFF7BCF8E9
:1017D0006663A08DE18D401A81B206E0A18D814241
:1017E000A8D1D069B842A5D166632046FFF729FF8A
:1017F000F8BDA08DE18D401A81B2E08D0028F7D0B0
:101800000029F5D020680C3050E8002F22F49072A7
:1018100040E80027002FF5D12068143050E8002F51
:1018200022F0010240E80027002FF5D184F8423071
:10183000256320680C3050E8002F00E006E022F01D
:10184000100240E80023002BF3D1CDE705062BD58D
:10185000150629D594F841002128C9D1A068B0F512
:10186000805F01D12069B0B1206A411C21622168EA
:1018700000784860E08C401E0004000CE084B7D182
:101880002068C16821F08001C1602068C16841F012
:101890004001C160F8BD206A0088C0F308004860BC
:1018A000206A801C2062E5E74006F3D55006F1D59A
:1018B000CA68204622F04002CA6084F8413000F035
:1018C0000DF9F8BDA935000870B5040004D094F8EE
:1018D0004100002510B106E0012070BD84F84050A1
:1018E000204600F023F8242084F841002068C168D5
:1018F00021F40051C160204601F0E6FE2068016934
:1019000021F4904101612068416921F02A0141617F
:101910002068C16841F40051C1606564202084F8EA
:10192000410084F842006563002070BD70B586B048
:10193000044614216846FEF7EDFC284E226800217B
:101940002748022303240725B2421DD1244A14321A
:10195000166846F010061660126802F01002059232
:10196000026842F001020260006802AA00F0010071
:10197000059082E832006002CDE90003694619480B
:10198000FFF78EF806B070BD174EB242FAD1144A76
:101990001032166846F480261660126802F480221F
:1019A0000592026842F002020260006802AA00F09A
:1019B0000200059082E832004FF44060CDE9000358
:1019C00069460A48FFF76CF8002205212720FFF737
:1019D000FDF92720FFF7ECF9D4E7000000100140E3
:1019E000303802400000024000480040000402403D
:1019F00090F84230202B01D00220704721B11AB15B
:101A00000023036301F0E6BE0120704710B50068B3
:101A1000074988420AD10748007800F073F8BDE80A
:101A20001040012203490448FFF7E2BF10BD000047
:101A30000048004024000020680100202DE9F84300
:101A4000044690F84100984616460D46202802D0DC
:101A50000220BDE8F88385B17EB1002060642120BA
:101A600084F84100FFF71AF9A6848146E684A0684D
:101A70002027B0F5805F02D003E00120E9E720696C
:101A800010B12E4600250EE000260CE080212046F5
:101A900001F0BBFEA8B9C6B116F8010B2168486079
:101AA000E08C401EE084E08C4B464FF00002CDF805
:101AB00000800028EAD14FF04001204601F0A5FE49
:101AC00040B184F841700320C3E735F8020BC0F33E
:101AD0000800E3E784F841700020BAE77047FEE7AA
:101AE0000148C0687047000034000020014AD080DF
:101AF00011817047340000200149C8607047000020
:101B00003400002070B5184C1649002662888854AD
:101B1000521C90B26080802801D3668070BD2E2850
:101B2000FCD30A1852F8042CB2F1FF4FF6D12E382C
:101B3000C0B20D180B482E2229468030FEF7D1FB8B
:101B400028462821FEF774FE014606488030028DA3
:101B50008A4202D101202070DFE704A001F096FE46
:101B6000DBE70000F8010020200000205B4C6F52F2
:101B7000615D20435243204572726F7221204361A0
:101B80006C3A3078253034582C20526563763A30E0
:101B900078253034580D0A0010B500222E2102207D
:101BA00002F01EFC0B4C0C4A002160600B4802F056
:101BB00077FC094AA06024320021094802F070FC39
:101BC000054AE06048320021064802F069FC2061C5
:101BD00010BD000000000020F45C0008D1300008B7
:101BE000D93000081531000810B588B01C216846AE
:101BF000FEF790FB15484FF0204104230160144983
:101C0000C0E9011300211022C160C0E90412816102
:101C1000C16114020162C0E90914C1620163416338
:101C2000816341640F20CDE9003002AB83E80700F7
:101C30001120CDE90501002269460448FFF7BAFBEF
:101C4000002801D0FEF70EFE08B010BDD000002025
:101C5000040100A02DE9F04186B014216846FEF78A
:101C600059FB2F480024016841F020010160016800
:101C700001F020010591016841F0800101600168D7
:101C800001F080010591016841F0100101600168D7
:101C900001F010010591016841F002010160016845
:101CA00001F002010591016841F00801016001683D
:101CB00001F008010591016841F00101016001682E
:101CC00001F001010591016841F0400101600068E7
:101CD000144F00F040004FF4E075059001222946B2
:101CE0003846FEF7D5FF0122DFF83C80D6033146A7
:101CF0004046FEF7CDFF00950125CDE90154694628
:101D000038460394FEF7CCFE0096CDE901546946AF
:101D100040460394FEF7C4FE06B0BDE8F081000023
:101D20003038024000140240000402400C4810B554
:101D30000A4901604FF4E1314160002181600C22C9
:101D4000C160C0E904128161C161FFF7BDFD0028D7
:101D500003D0BDE81040FEF785BD10BD0010014066
:101D6000200100200C4810B50A4901604FF41651BB
:101D70004160002181600C22C160C0E904128161D0
:101D8000C161FFF7A1FD002803D0BDE81040FEF7B8
:101D900069BD10BD0048004068010020FEE7FEE775
:101DA000044B4FF4007108B1012200E000221846F4
:101DB000FEF76EBF0014024070B51C46154600F0D9
:101DC00083F9044905FB04F00989BDE8704000F07F
:101DD000A1B800003400002001B5009801E0401EC9
:101DE00000900028FBD108BDF0B5194E203A1FFA2B
:101DF00082FCF568AA88EB882D6802FB03F7FC17C4
:101E000007EB5474C4F3C7040CFB045500F05CF9F1
:101E10004FF0D0424FF43050108000213389F688C3
:101E2000802711E05FF0000015F801C027FA00FEDE
:101E30001CEA0E0F01D0568000E05380401CC0B257
:101E40000828F1D3491CC9B2A142EBD3F0BD000070
:101E500034000020F0B50F46064600250F4C19E06F
:101E6000E068638881882944994203D9C1880025A4
:101E700031448EB2C088A1883044884201D90025FF
:101E80002E4631462846FFF7AFFFE0687F1C80886A
:101E9000284485B23A78002AE2D1F0BD340000200F
:101EA000194818B44FF020410160194A17494160A0
:101EB0001368002143F0010313601268042302F049
:101EC0000102009200F150029C06C2E90031C2E911
:101ED00002311161C2E9051408228360C0E90312CE
:101EE0001022C0E905211202C161C0E90912C162D4
:101EF0000163416381631102C16300F1500218BCA8
:101F00001146FFF757BA000028470020040100A03F
:101F10003838024010B54FF0D0434FF4305400220F
:101F20001C8001E05980521C8242FBD310BD00008E
:101F30002D4810B5016886B041F0080101600168C4
:101F400001F008010591016841F01001016001688C
:101F500001F010010591016841F020010160016864
:101F600001F020010591016841F040010160006825
:101F700000F0400005901C480830016841F0010164
:101F800001600068694600F00100059001200190A1
:101F90000290032003904FF4806000901348FEF7F6
:101FA0007FFD4FF40060124C009069462046FEF71A
:101FB00077FD022001900C2004904CF233700090C9
:101FC00069460C48FEF76CFD4FF68070009069463C
:101FD0000948FEF765FD40F2012000906946204661
:101FE000FEF75EFD06B010BD30380240001802401A
:101FF00000140240000C02400010024010B50728F7
:1020000042D8234AC4074FF4F07110704FF448735C
:102010003BD05380A2F804104FF0D0414FF45853F6
:102020000B80400148804FF42850088000204880F1
:1020300042F6012008800020488042F602200880F5
:102040005088401EC0F307234B8042F603230B80C9
:10205000C0B248804FF42C5008800020488042F6DF
:10206000013008800020488042F6023008809088C5
:10207000401EC0F307224A8042F603320A80C0B2F3
:1020800048804FF43050088010BD51809380C3E7E2
:102090003400002010B5FFF74BFFFFF701FF00F001
:1020A000FDFF00F040F8074C2078FFF7A7FF002164
:1020B000A38862880846FFF77FFEBDE81040012034
:1020C000FFF76EBE3400002030B54FF0D0444FF41F
:1020D00028552580050A658042F601252580C5B270
:1020E000658042F6022525801044401E020A628067
:1020F0006A1C2280C0B260804FF42C502080080AF5
:10210000608042F601302080C8B2608042F6023022
:102110002080C818401E010A618042F603312180E8
:10212000C0B2608030BD38B54FF0D0404FF4704140
:102130000180552141804FF201010180AA21418097
:102140004FF202010180522141804FF203010180D0
:10215000082141804FF204010180012141804FF4A8
:10216000304101800D2141804BF2010101800D21A0
:1021700041804BF2020101800D2141804FF4314139
:1021800001800D2141804BF2011101800D21418020
:102190004BF2021101800D2141804FF43241018048
:1021A000002141804BF201210180002141804BF24E
:1021B00002210180002141804FF4364101804421F9
:1021C00041804BF201610180442141804BF2026168
:1021D0000180442141804FF4374101803421418006
:1021E0004BF201710180342141804BF20271018078
:1021F000342141804FF438410180342141804BF635
:1022000001010180342242804A1C02803423438031
:102210004FF43F430380012343804FF43343038053
:102220000F2343804BF2013303800F2343804BF293
:10223000023303800F2343804FF439430380342358
:1022400043804BF601130380342343804BF6021383
:102250000380342343804FF43543038008234380B5
:102260004BF201530380082343804BF20253038057
:10227000082343804FF442430380032343804FF4F9
:102280003A430380342343804BF6012303803423F5
:1022900043804BF602230380342343804FF43C43B6
:1022A0000380002444805C1C0480782545809D1CAC
:1022B0000580002545804FF43D450580002545807B
:1022C0004BF601550580782545804BF60255058073
:1022D000002545804FF43E450580002545804BF69E
:1022E00001650580642545804FF451450580002532
:1022F00045804DF201150580332545804DF20215CC
:102300000580002545804DF2031505803425458064
:102310004DF204150580002545804DF20515058018
:102320003A2545804DF206150580002545804DF281
:10233000071505804A2545804DF2081505800025C2
:1023400045804DF2091505805C2545804DF20A1542
:102350000580002545804DF20B15058081254580BF
:102360004DF20C150580002545804DF20D150580B8
:10237000A62545804DF20E150580002545804DF2BD
:102380000F150580E52545804DF2101505800125C6
:1023900045804DF211150580132545804DF212152B
:1023A0000580012545804DF2131505805425458093
:1023B0004DF214150580012545804DF21515058057
:1023C000822545804DF216150580012545804DF288
:1023D00017150580CA2545804DF218150580022580
:1023E00045804DF219150580002545804DF21A15DE
:1023F0000580022545804DF21B150580012545808D
:102400004DF21C150580022545804DF21D150580F5
:10241000342545804DF21E150580022545804DF27C
:102420001F150580672545804DF220150580022582
:1024300045804DF221150580842545804DF22215F9
:102440000580022545804DF223150580A425458091
:102450004DF224150580022545804DF22515058095
:10246000B72545804DF226150580022545804DF2A1
:1024700027150580CF2545804DF2281505800225BA
:1024800045804DF229150580DE2545804DF22A153F
:102490000580022545804DF22B150580F2254580EB
:1024A0004DF22C150580022545804DF22D15058035
:1024B000FE2545804DF22E150580032545804DF201
:1024C0002F150580102545804DF230150580032518
:1024D00045804DF231150580332545804DF232158A
:1024E0000580032545804DF2331505806D25458017
:1024F0004FF452450580002545804DF201250580A9
:10250000332545804DF202250580002545804DF29A
:1025100003250580342545804DF2042505800025DE
:1025200045804DF2052505803A2545804DF206256A
:102530000580002545804DF2072505804A25458008
:102540004DF208250580002545804DF209250580BE
:102550005C2545804DF20A250580002545804DF219
:102560000B250580812545804DF20C250580002531
:1025700045804DF20D250580A62545804DF20E259E
:102580000580002545804DF20F250580E525458015
:102590004DF210250580012545804DF2112505805D
:1025A000132545804DF212250580012545804DF209
:1025B00013250580542545804DF2142505800125FD
:1025C00045804DF215250580822545804DF2162562
:1025D0000580012545804DF217250580CA254580D7
:1025E0004DF218250580022545804DF219250580FC
:1025F000002545804DF21A250580022545804DF2C3
:102600001B250580012545804DF21C2505800225EE
:1026100045804DF21D250580342545804DF21E254F
:102620000580022545804DF21F25058067254580E0
:102630004DF220250580022545804DF2212505809B
:10264000842545804DF222250580022545804DF2E6
:1026500023250580A42545804DF2242505800225EB
:1026600045804DF225250580B72545804DF226256C
:102670000580022545804DF227250580CF25458020
:102680004DF228250580022545804DF2292505803B
:10269000DE2545804DF22A250580022545804DF234
:1026A0002B250580F22545804DF22C25058002253D
:1026B00045804DF22D250580FE2545804DF22E25C5
:1026C0000580032545804DF22F2505801025458086
:1026D0004DF230250580032545804DF231250580DA
:1026E000332545804DF232250580032545804DF286
:1026F000332505806D2545804FF453450580002521
:1027000045804DF201350580332545804DF2023577
:102710000580002545804DF2033505803425458030
:102720004DF204350580002545804DF205350580C4
:102730003A2545804DF206350580002545804DF24D
:10274000073505804A2545804DF20835058000256E
:1027500045804DF2093505805C2545804DF20A35EE
:102760000580002545804DF20B350580812545808B
:102770004DF20C350580002545804DF20D35058064
:10278000A62545804DF20E350580002545804DF289
:102790000F350580E52545804DF210350580012572
:1027A00045804DF211350580132545804DF21235D7
:1027B0000580012545804DF213350580542545805F
:1027C0004DF214350580012545804DF21535058003
:1027D000822545804DF216350580012545804DF254
:1027E00017350580CA2545804DF21835058002252C
:1027F00045804DF219350580002545804DF21A358A
:102800000580022545804DF21B3505800125458058
:102810004DF21C350580022545804DF21D350580A1
:10282000342545804DF21E350580022545804DF248
:102830001F350580672545804DF22035058002252E
:1028400045804DF221350580842545804DF22235A5
:102850000580022545804DF223350580A42545805D
:102860004DF224350580022545804DF22535058041
:10287000B72545804DF226350580022545804DF26D
:1028800027350580CF2545804DF228350580022566
:1028900045804DF229350580DE2545804DF22A35EB
:1028A0000580022545804DF22B350580F2254580B7
:1028B0004DF22C350580022545804DF22D350580E1
:1028C000FE2545804DF22E350580032545804DF2CD
:1028D0002F350580102545804DF2303505800325C4
:1028E00045804DF231350580332545804DF2323536
:1028F0000580032545804DF2333505806D254580E3
:102900004FF454450580002545804DF20145058072
:10291000332545804DF202450580002545804DF266
:1029200003450580342545804DF20445058000258A
:1029300045804DF2054505803A2545804DF2064516
:102940000580002545804DF2074505804A254580D4
:102950004DF208450580002545804DF2094505806A
:102960005C2545804DF20A450580002545804DF2E5
:102970000B450580812545804DF20C4505800025DD
:1029800045804DF20D450580A62545804DF20E454A
:102990000580002545804DF20F450580E5254580E1
:1029A0004DF210450580012545804DF21145058009
:1029B000132545804DF212450580012545804DF2D5
:1029C00013450580542545804DF2144505800125A9
:1029D00045804DF215450580822545804DF216450E
:1029E0000580012545804DF217450580CA254580A3
:1029F0004DF218450580022545804DF219450580A8
:102A0000002545804DF21A450580022545804DF28E
:102A10001B450580012545804DF21C45058002259A
:102A200045804DF21D450580342545804DF21E45FB
:102A30000580022545804DF21F45058067254580AC
:102A40004DF220450580022545804DF22145058047
:102A5000842545804DF222450580022545804DF2B2
:102A600023450580A42545804DF224450580022597
:102A700045804DF225450580B72545804DF2264518
:102A80000580022545804DF227450580CF254580EC
:102A90004DF228450580022545804DF229450580E7
:102AA000DE2545804DF22A450580022545804DF200
:102AB0002B450580F22545804DF22C4505800225E9
:102AC00045804DF22D450580FE2545804DF22E4571
:102AD0000580032545804DF22F4505801025458052
:102AE0004DF230450580032545804DF23145058086
:102AF000332545804DF232450580032545804DF252
:102B0000334505806D2545804FF4554505800025EA
:102B100045804DF201550580332545804DF2025523
:102B20000580002545804DF20355058034254580FC
:102B30004DF204550580002545804DF20555058070
:102B40003A2545804DF206550580002545804DF219
:102B5000075505804A2545804DF20855058000251A
:102B600045804DF2095505805C2545804DF20A559A
:102B70000580002545804DF20B5505808125458057
:102B80004DF20C550580002545804DF20D55058010
:102B9000A62545804DF20E550580002545804DF255
:102BA0000F550580E52545804DF21055058001251E
:102BB00045804DF211550580132545804DF2125583
:102BC0000580012545804DF213550580542545802B
:102BD0004DF214550580012545804DF215550580AF
:102BE000822545804DF216550580012545804DF220
:102BF00017550580CA2545804DF2185505800225D8
:102C000045804DF219550580002545804DF21A5535
:102C10000580022545804DF21B5505800125458024
:102C20004DF21C550580022545804DF21D5505804D
:102C3000342545804DF21E550580022545804DF214
:102C40001F550580672545804DF2205505800225DA
:102C500045804DF221550580842545804DF2225551
:102C60000580022545804DF223550580A425458029
:102C70004DF224550580022545804DF225550580ED
:102C8000B72545804DF226550580022545804DF239
:102C900027550580CF2545804DF228550580022512
:102CA00045804DF229550580DE2545804DF22A5597
:102CB0000580022545804DF22B550580F225458083
:102CC0004DF22C550580022545804DF22D5505808D
:102CD000FE2545804DF22E550580032545804DF299
:102CE0002F550580102545804DF230550580032570
:102CF00045804DF231550580332545804DF23255E2
:102D00000580032545804DF2335505806D254580AE
:102D10004FF456450580002545804DF2016505803C
:102D2000332545804DF202650580002545804DF232
:102D300003650580342545804DF204650580002536
:102D400045804DF2056505803A2545804DF20665C2
:102D50000580002545804DF2076505804A254580A0
:102D60004DF208650580002545804DF20965058016
:102D70005C2545804DF20A650580002545804DF2B1
:102D80000B650580812545804DF20C650580002589
:102D900045804DF20D650580A62545804DF20E65F6
:102DA0000580002545804DF20F650580E5254580AD
:102DB0004DF210650580012545804DF211650580B5
:102DC000132545804DF212650580012545804DF2A1
:102DD00013650580542545804DF214650580012555
:102DE00045804DF215650580822545804DF21665BA
:102DF0000580012545804DF217650580CA2545806F
:102E00004DF218650580022545804DF21965058053
:102E1000002545804DF21A650580022545804DF25A
:102E20001B650580012545804DF21C650580022546
:102E300045804DF21D650580342545804DF21E65A7
:102E40000580022545804DF21F6505806725458078
:102E50004DF220650580022545804DF221650580F3
:102E6000842545804DF222650580022545804DF27E
:102E700023650580A42545804DF224650580022543
:102E800045804DF225650580B72545804DF22665C4
:102E90000580022545804DF227650580CF254580B8
:102EA0004DF228650580022545804DF22965058093
:102EB000DE2545804DF22A650580022545804DF2CC
:102EC0002B650580F22545804DF22C650580022595
:102ED00045804DF22D650580FE2545804DF22E651D
:102EE0000580032545804DF22F650580102545801E
:102EF0004DF230650580032545804DF23165058032
:102F0000332545804DF232650580032545804DF21D
:102F1000336505806D2545804FF470450580552546
:102F200045804FF201050580AA2545804FF2020534
:102F30000580522545804FF2030505800825458010
:102F40004FF204050580002545804FF43545058086
:102F5000502545804FF431450580CC2545804BF206
:102F600001150580002545804FF43645058005256F
:102F700045804FF437450580772545804BF2017534
:102F80000580772545804D1E0580012545800180FF
:102F90000321418002804180511C01800321418036
:102FA000038002214180048000214180991C01801E
:102FB000002141804FF43D410180012141804BF6C9
:102FC00001510180842141804BF6025101801C2176
:102FD00041804BF6035101801C2141804BF6045186
:102FE0000180002141804FF449410180D02141807E
:102FF0004CF601110180022141804CF60211018042
:10300000502141804CF603110180502141804CF643
:1030100004110180502141804FF45851018000215A
:1030200041804FF454510180002141804FF47F4191
:103030000180AA2141804FF6017101805521418014
:103040004FF602710180252141804FF60371018006
:10305000012141804FF47C410180162141804FF6CF
:1030600001410180A22141804FF6024101802621C9
:1030700041804FF468510180062242800180552131
:1030800041804FF4885101806FF07F410091491ECB
:103090000091FCD14FF42451018038BD70B50B4D27
:1030A0004FF40064002221462846FDF7F1FD40F66A
:1030B000FF263046FEF790FE012221462846FDF706
:1030C000E7FD3046BDE87040FEF786BE00140240C2
:1030D000012001F017F9FBE70A4C0B4E0025207880
:1030E00060B125700A232E2208490948FEF7A6FC84
:1030F00000231A460549706801F09EF9052001F089
:1031000001F9ECE7200000200000002078020020F8
:1031100020010020A6B04FF6FF7700213846FEF7C9
:10312000E5FCFEF7DDFCC0887DA1FEF793FEDFF82D
:1031300008824FF0FF3A4FF4FC6B534600221AA965
:10314000D8F8040001F01AF90028F6D17B48FEF700
:10315000D3FC7B4C2068FDF7E8F841EC100B79A11B
:1031600053EC102B02A800F0A1FB00214FF4784093
:10317000FEF7BCFCFEF7B4FCC08802A900EB4000DF
:1031800080B2FEF767FE6068FDF7CFF841EC100BE8
:1031900071A153EC102B02A800F088FB00211F2026
:1031A000FEF7A4FCFEF79CFCC08802A907EA800099
:1031B000FEF750FE6069FDF7B8F805460E46A068B8
:1031C000FDF7B3F841EC100BCDE9005653EC102B92
:1031D00066A102A800F06AFB4FF6E079002148469C
:1031E000FEF784FCFEF77CFCC08802A900EB4000DF
:1031F00007EA4000FEF72EFEA069FDF796F80546A7
:103200000E46E068FDF791F841EC100BCDE9005651
:1032100053EC102B5CA102A800F048FB00214846AB
:10322000FEF764FCFEF75CFCC08802A907EAC00058
:10323000FEF710FEE069FDF778F805460E462069B6
:10324000FDF773F841EC100BCDE9005653EC102B51
:1032500054A102A800F02AFB00214846FEF746FCD4
:10326000FEF73EFCC08802A900EB800007EA4000A0
:10327000FEF7F0FD606AFDF758F805460E46206A35
:10328000FDF753F841EC100BCDE9005653EC102B31
:103290004BA102A800F00AFB00213846FEF726FCED
:1032A000FEF71EFCC08802A900EB400007EA800080
:1032B000FEF7D0FD00213846FEF718FC98F8001004
:1032C00041B1002188F8001000294FF0000103D01F
:1032D000584602E00121F5E70020FEF707FCFEF763
:1032E000FFFBC0883DA100EB800080B2FEF7B2FD7D
:1032F000002001F087FD02463EA112A800F0D6FA98
:1033000000215846FEF7F2FBFEF7EAFBC08812A93F
:10331000C0EBC00007EA4000FEF79CFD0DE700008F
:1033200020202052544F53204C6F5261205465721C
:103330006D696E616C2000000000002044000020D8
:103340007802002054656D703A20252E31662043A6
:10335000202020202000000048756D3A2020252ED6
:103360003166202525202020202000006163635F36
:10337000783A20252E33662020206779726F5F7897
:103380003A20252E336600006163635F793A202579
:103390002E33662020206779726F5F793A20252EC0
:1033A000336600006163635F7A3A20252E3366201E
:1033B00020206779726F5F7A3A20252E33660000ED
:1033C0004C61743A20252E346620202020202020B5
:1033D0004C6F6E3A20252E346600000020202020FD
:1033E00020202020202020202020202020202020DD
:1033F00020202A00537461636B20467265653A2071
:10340000256C64202000000010B54FF0E02000691A
:1034100002F0BAFA012803D0BDE8104001F07ABFEB
:1034200010BD000030B593B030216846FCF772FF44
:1034300014210CA8FCF76EFF1E480025016841F01E
:1034400080510160006800F0805011901A480168B6
:1034500041F4804101600068022400F48040119032
:1034600001200090000401908001CDE90640192060
:1034700008904FF4A870CDE9090404200B90684629
:10348000FDF7E2FD08B172B6FEE70CA90F2081E856
:1034900031004FF4A0500F904FF480501090052150
:1034A0000CA8FDF7C5FC002801D072B6FEE713B0EA
:1034B00030BD000040380240007000400248016802
:1034C00041F470010160704788ED00E00148FEF7AB
:1034D00012B80000B0010020F0B50268274B284D5B
:1034E000284E294F294C4FF0804C984209D0604516
:1034F00007D0A84205D0B04203D0B84201D0A042C4
:1035000004D122F0700E4A6842EA0E0298421BD0A3
:10351000604519D0A84217D0B04215D0B84213D098
:10352000A04211D01A4DA8420ED01A4DA8420BD07D
:10353000194DA84208D0194DA84205D0184DA842EF
:1035400002D0184DA84203D122F44075CA682A431C
:103550004D6922F080022A438D68C5620D6885623C
:10356000984201D0A04201D109690163016841F08C
:1035700004010160012141610260F0BD00000140D1
:103580000004004000080040000C0040000401401E
:103590000040014000440140004801400018004044
:1035A000001C00400020004010B5806B0021C18548
:1035B000FEF748F810BD01680C3151E8002F22F4E5
:1035C000907241E80023002BF5D10168143151E8D5
:1035D000002F22F0010241E80023002BF5D1016BFE
:1035E000012909D101680C3151E8002F22F01002A5
:1035F00041E80023002BF5D1202180F84210002162
:103600000163704708B590F84210222901D00220CA
:1036100008BD82684FF480539A4201D1016921B1FB
:10362000816A9A421BD04AB10AE00268816A5268F4
:10363000C2F308020A80816A891C08E0026972B13B
:103640000268526802F07F020A70816A491C816236
:10365000C18D491E0904090CC18503D01BE0026815
:103660005268F1E70168CA6822F02002CA60016866
:10367000CA6822F48072CA6001684A6922F00102B5
:103680004A61202180F8421000214163026B012A27
:1036900003D0FEF7BBF9002008BD016301680C31BF
:1036A00051E8002F22F0100241E80023002BF5D151
:1036B00001680A68D20602D50A6849680091818DBE
:1036C000FDF7BFFFE7E7000070B504460068016939
:1036D000E26821F44051114301612169A068E26967
:1036E00008436169114308432168CA6849F20C63C1
:1036F0009A430243CA6020684169A26921F440717B
:103700001143416131492068884202D030498842E2
:1037100002D1FDF757FC01E0FDF744FCE26900230C
:10372000192164253226B2F5004F626828D0A0FB2B
:103730000101930F9200FCF7A3FD0146B0FBF5F0E9
:103740006FF01802504301EB800006EB0010B0FB55
:10375000F5F000F0F002B1FBF5F002EB0012B1FB66
:10376000F5F06FF01803584301EB800006EB0010F2
:10377000B0FBF5F000F00F0021681044886070BDC8
:10378000A0FB010192185B41FCF77AFD0146B0FBFA
:10379000F5F00201B1FBF5F06FF01803584301EBAF
:1037A000800006EBC000B0FBF5F000F0F80002EB83
:1037B0004002B1FBF5F0584301EB800006EBC0007E
:1037C000B0FBF5F000F00700D6E700000010014064
:1037D0000014014081628285C2850021416422215A
:1037E00080F84210016921B10168CA6842F4807210
:1037F000CA6001684A6942F001024A610068C16812
:1038000041F02001C160002070472DE9F84398463F
:1038100017460D460446089E24E0701C22D0FDF792
:103820003DFAA0EB0800B0421AD8CEB12068C168BA
:10383000490717D5802D15D0402D13D00168C943F5
:1038400009070FD401680025406800902046FFF763
:10385000B2FE0820606484F840500120BDE8F8837F
:103860000320FBE72068006835EA000004D0002050
:10387000B842D2D00020F1E70120F9E70148FDF776
:10388000E3BE000068010020FEE700000FB4054B16
:1038900010B503A9044A029800F0FEF810BC5DF8C8
:1038A00014FB0000D1410008CC0000200FB4084BED
:1038B00010B504A902AA039800F0EEF8044602A984
:1038C000002000F080FC204610BC5DF814FB0000D6
:1038D000C74100080907090E002804DB00F1E020B9
:1038E00080F80014704700F00F0000F1E02080F82D
:1038F000141D704702E008C8121F08C1002AFAD13F
:1039000070477047002001E001C1121F002AFBD15F
:10391000704700002DE9FF5F82B00021DDE904302F
:10392000020DDDF840B0034318D044F61050A2F267
:10393000FF3242431514119801281FD0A5EB0B004C
:10394000401C5FEA000A4FF000064E4FDFF8389146
:10395000B046504615D5CAF1000413E01198012471
:103960004AA3012801D16FEA0B010298119AC0E91C
:103970000031C0E9024206B0BDE8F09FCBF1000083
:10398000DFE704460021404A491842EB0450CDE9E4
:10399000001012E0E00707D032463B464046494659
:1039A000FCF7B2FD8046894632463B461046194632
:1039B000FCF7AAFD06460F466410002CEAD1DDE9AB
:1039C0000401DDE90023BAF1000F06DAFCF79CFDE3
:1039D00042464B46FCF798FD05E0FCF707FE4246E1
:1039E0004B46FCF703FE04460E460022284BFCF72C
:1039F00085FE03D84FF0FF30014607E00022254B3B
:103A000020463146FCF7D9FCFCF75FFE102409E0A4
:103A1000002C0ADB0A220023FCF732FC039B303225
:103A20001A55641E50EA0102F2D1641C039AC4F1D3
:103A300011031444119A012A03D0012208430DD125
:103A40000AE0084304D000204FF0110B119072E7F8
:103A5000A3EB0B056D1E0DE05B4504DD4FF000028E
:103A600005F1010504E003DA4FF00002A5F10105BC
:103A7000002AECD002981199C0E90231C0E9004552
:103A800079E70000000014400000F03F3000000023
:103A90000000F0430000E03F2DE9FF4F95B09B464A
:103AA0008946064600250FE2252877D100242746BF
:103AB000F84A0121059400E0044316F8013F203B39
:103AC00001FA03F01042F7D130782A2811D06FF0B4
:103AD0002F033078A0F13002092A16D8059A44F055
:103AE000020402EB820203EB42021044761C0590B2
:103AF000EFE759F8042B0592002A03DA504244F408
:103B00000054059044F00204761C30782E2816D11B
:103B100016F8010F44F004042A280DD06FF02F028C
:103B20003078A0F13003092B09D807EB870302EBAB
:103B30004303C718761CF3E759F8047B761C3078EA
:103B40006C280FD006DC4C2817D068280DD06A28C6
:103B500014D104E0742810D07A280FD10DE044F479
:103B600000140AE044F4801401E044F44014727834
:103B7000824202D104F58014761C761C30786628C7
:103B80000BD013DC582877D009DC002875D04528E5
:103B9000F6D04628F4D047281AD19DE118E06328D2
:103BA00035D0642879D0652812D195E1702873D07A
:103BB00008DC6728F1D069286FD06E280DD06F28F7
:103BC00006D1B5E073282CD0752875D0782874D02C
:103BD0005A46179990476D1C75E1C4F302500228AC
:103BE00009D003280DD0D9F8001004280DD00D609D
:103BF00009F1040967E1D9F80010EA17C1E9005298
:103C0000F6E7D9F800100D80F2E70D70F0E719F82B
:103C1000041B8DF8001000208DF80100EA460120F9
:103C200003E059F804AB4FF0FF3061074FF000019B
:103C300002D40DE008F101018846B9420FDA80454F
:103C4000F8DB1AF808100029F4D108E008F10101A6
:103C500088468142FADB1AF808100029F6D1059847
:103C60005B46A0EB080721463846179A00F094FA05
:103C7000284400EB080507E04DE029E10DE01AF8C3
:103C8000010B5A4617999047B8F10108F7D25B46E5
:103C900021463846179A13E142E00A220092C4F303
:103CA00002524FF0000A022A08D059F804CB032A26
:103CB0004FEAEC710AD00DE029E02AE009F1070192
:103CC00021F00702F2E802C1914609E00FFA8CFCEC
:103CD0004FEAEC71042A03D14FFA8CFC4FEAEC71E5
:103CE000002907DA0A460021DCF1000C61EB020131
:103CF0002D2202E0220504D52B228DF8042001227A
:103D000003E0E20701D02022F7E7904659E00A21BC
:103D100002E010220DE010214FF0000A00910BE0AC
:103D200010224FF0000A44F004040827009203E038
:103D300008224FF0000A0092C4F30252022A05D072
:103D400059F804CB0021032A08D009E009F1070142
:103D500021F00702F2E802C1914605E01FFA8CFC4F
:103D6000042A01D10CF0FF0C4FF00008220728D5DF
:103D7000702806D0009B83F0100353EA0A0305D095
:103D80000EE040228DF80420012208E05CEA0102E6
:103D900006D030228DF804208DF8050002229046CE
:103DA000009B83F0080353EA0A030AD15CEA01028C
:103DB00001D1620705D530228DF804204FF00108AB
:103DC0007F1E582804D034A003900EA802900DE066
:103DD00036A0F9E753466046009AFCF751FA84464C
:103DE0000398825C0298401E029002705CEA010017
:103DF000F0D1029806A9081A00F1200A600702D53E
:103E000024F4803400E00127574502DDA7EB0A00C7
:103E100000E0002000EB0A01009005984144401AA0
:103E20000590E00306D45B462146179A059800F0FA
:103E3000B3F90544002706E001A85A46C05D17996A
:103E400090476D1C7F1C4745F6DBE0030CD55B46B5
:103E50002146179A059800F09FF9054404E03020A8
:103E60005A46179990476D1C0099481E00900029EA
:103E7000F5DC08E0029802995A460078491C029144
:103E8000179990476D1CBAF10001AAF1010AF1DC03
:103E900065E100000928010030313233343536370E
:103EA0003839616263646566000000003031323386
:103EB0003435363738394142434445460000000026
:103EC00000F058F90544761C307800287FF4ECADFA
:103ED00019B02846BDE8F08F620700D4062709F123
:103EE000070222F0070CFCE80223E14603F0004839
:103EF0005FEA080C02D00FF2702C0DE05FEA045C60
:103F000002D50FF2682C07E05FEAC47C02D00FF202
:103F1000602C01E0AFF2700C4FF0FF3823F000434B
:103F2000CDF850C065280CD006DC452809D04628BD
:103F30001DD047283DD13DE0662818D067287ED1A6
:103F400038E00021112F01DB112000E0781CCDE9C1
:103F5000000106A90EA8FFF7DDFCDDE90F010E9AAE
:103F600003910021009207F1010A04914DE04FF006
:103F700000400097CDE9011006A90EA8FFF7CAFC82
:103F8000DDE90F0203920E9B11990022DDF80CA0CF
:103F90000093049211B9791C00EB010AB7EB0A00F7
:103FA00004D4C0F1FF3007F1010A0490AAEB070026
:103FB000019044E0012F00DA01270021112F01DDDB
:103FC000112000E03846CDE9000106A90EA8FFF750
:103FD000A1FCDDE90F010E9A0391002104910092EA
:103FE000BA4621070CD40399514500DA8A46BAF142
:103FF000010F05DD009AAAF10101515C302908D0BA
:10400000B84202DA10F1040F06DA0121CDE90110FD
:1040100015E0AAF10101E9E7002805DC0499014453
:104020000491AAEB000102E0411C514500DD8A46E3
:104030000499401A401C01904FF000400290200764
:1040400004D40198504501DBCDF8048000208DF8A0
:104050004F0002980DF14F07B0F1004F25D02B20F3
:104060000E9002984FF0020800280CDA40420290AD
:104070002D200E9007E00A210298FCF769F93031F3
:10408000029007F8011DB8F10001A8F10108F2DC67
:1040900002980028EFD1791E0E980870307800F051
:1040A000200040F0450007F8020D12A8C01B00F1E7
:1040B00007081498007800B1012000EB0A0101986C
:1040C00001EBE07105984144401A401E0590E00361
:1040D00006D45B462146179A059800F05DF8054422
:1040E0001498007818B15A46179990476D1CE00350
:1040F00024D55B462146179A059800F04DF80544F3
:104100001CE00498002807DBDDE90301884203DD99
:104110000098405C179901E0179930205A46904763
:10412000049805F10105401C04900198401E01907F
:1041300004D12E205A46179990476D1CBAF1000100
:10414000AAF1010ADDDC05E017F8010B5A461799C0
:1041500090476D1CB8F10001A8F10108F4DC5B4642
:104160002146179A0598ABE62D0000002B000000B1
:10417000200000002DE9F041044600251E461746A8
:10418000880404D405E039462020B0476D1C641E25
:10419000F9D52846BDE8F0812DE9F0410446002517
:1041A0001E469046C80301D5302700E0202788042A
:1041B00004D505E041463846B0476D1C641EF9D56C
:1041C0002846BDE8F0810A68531C0B6010707047E8
:1041D00013B54FF6FF73012269460248FDF72EFC26
:1041E00000981CBD20010020FCF766FDFFF71AF9BE
:1041F000FDF730FDFDF79AFDFDF7B4FDFDF7F4FC8A
:104200001DA0FFF743FB25A0FFF740FB01222B4930
:104210002B48FDF7EDFBFDF73DFF0122D1032948B7
:10422000FCF736FD0620FDF7E9FE4FF6FF7400218E
:104230002046FDF75BFC00214FF4F0734FF4487209
:104240000846FDF7B9FD2048FDF756FCFDF748FC90
:10425000C0881EA1FDF7FEFDFDF742FCC08822A12B
:1042600004EA4000FDF7F6FD00F05AF8FDF794FC73
:1042700000F068F8FEE7000053544D333246343006
:1042800037204C6F526120526563656976657220F4
:104290005265616479210D0A0000000055415254B5
:1042A00031202D3E2050432C205541525433202D97
:1042B0003E204C6F52610D0A0000000024000020D7
:1042C000680100200004024044000020202020203B
:1042D0002053544D3332204C6F526120526561643B
:1042E00079202020202000002D2D2D2D2D2D2D2D4D
:1042F0002D2D2D2D2D2D2D2D2D2D2D2D2D2D2D2DEE
:104300002D2D000010B5EFF3058111B16FF00504FC
:1043100003E0002408B100F09DFE204610BD00001F
:10432000EFF3058010B16FF0050070470448016895
:1043300011B14FF0FF30704701210160002070473C
:104340009C00002010B5EFF3058010B16FF0050060
:1043500010BD08480168012902D04FF0FF3010BDA0
:10436000054A002182F8141D0221016000F0DAFEE6
:10437000002010BD9C0000200BE000E0F8B51D46B9
:104380006FF003026FF002064FF00004EFF30583B5
:10439000A3B1F0B1E9B1E5B9002200926A4601F09B
:1043A00013FA012817D10098B0B10C494FF0805092
:1043B0000860BFF34F8FBFF36F8F0DE048B141B17D
:1043C0002A4601F065F9012806D025B16FF00104F5
:1043D00002E0144600E034462046F8BD04ED00E05B
:1043E000F8B514464FF00005EFF3058212BB08B391
:1043F00001B3A4B1D4E9023263B1502A1AD32269BD
:10440000C2B1676900FB01F6B74213D3009500F013
:10441000B8FF07E072B9226962B9626952B9002235
:1044200000F08EFF050005D00CB1216800E00021EE
:1044300000F0DAFD2846F8BDF8B51D466FF003021E
:104440006FF002064FF00004EFF30583ABB100B349
:10445000F9B1F5B90022134600926A4601F0B8F8A6
:10446000012818D10098B8B10C494FF0805008606D
:10447000BFF34F8FBFF36F8F0EE050B149B10023F0
:104480002A4600F0F5FF012806D025B16FF001049F
:1044900002E0144600E034462046F8BD04ED00E09A
:1044A0002DE9FF414FEA01034FF00005EFF30581CD
:1044B000039549BB40B38027182100244AB31668EE
:1044C00006B1344696691EB13146761E382E02D2A8
:1044D0001679F60703D0002004B0BDE8F0815669D4
:1044E00006B1B708D2F808C0BCF1000F0DD0D568EE
:1044F0005C2D18D312693AB136B18DE806103A46F0
:10450000214601F016FA03900DE0D6685EB91269F3
:104510004AB903AACDE90012BAB2214601F0DCF98A
:10452000012800D003950398D6E700002DE9F0415B
:10453000134C0F460546E6682068001D00F04EFC4F
:10454000681C07D137B12168BDE8F0410D48091D4D
:1045500000F09CBC20683544B5424560216805D216
:10456000A06BBDE8F041091D00F078BC606B091D2F
:1045700000F074FCA06A854200D2A562BDE8F0811B
:104580004C000020844C00202DE9F041054600F04D
:1045900089FC2D4CA068401CA06020682B4F10B1F6
:1045A000606930B32BE02560A068012827D1002680
:1045B00006EB860007EB800000F042FC761C382EEC
:1045C000F6D3234800F03CFC2148143000F038FCBE
:1045D0001F48283000F034FC1D483C3000F030FC0F
:1045E0001B48503000F02CFC194860631430A06365
:1045F00005E02068E96AC06A884200D82560606AE0
:10460000401C60626864E86A2169884200D92061C0
:1046100000EB800007EB8000291D00F037FC00F064
:1046200061FC606900280CD02068E96AC06A884291
:1046300007D208494FF080500860BFF34F8FBFF397
:104640006F8FBDE8F08100004C000020D4470020AF
:10465000344C002004ED00E038B500F023FC104C91
:104660002068C8B90F4800F0EBFB0E48143000F08A
:10467000E7FB0C48E060143020610A4B0020F03B5F
:10468000009003F1500210210A2000F07AFE206011
:1046900010B105A100F0A8FCBDE8384000F022BC34
:1046A00088000020884D0020546D725100000000E9
:1046B00030B4026C0B46002A0BD0C1681144C160B3
:1046C0008468A14201D30168C16030BC1846FBF781
:1046D00008BE30BC70472DE9F041856B1746044693
:1046E0000026026C82B1C7B1E068FBF7FAFDE16811
:1046F000206C091AE1602268914202D2A168081A6E
:10470000E060022F16D017E02068A8B9A06801F079
:10471000B3F906460020A0600EE06068FBF7E1FDFB
:10472000216C606808446060A168884204D32068F6
:10473000606001E005B16D1E6D1CA5633046BDE8EB
:10474000F08110B5044690F8590058B101280CD0FA
:1047500002280FD0502080F31188BFF34F8FBFF392
:104760006F8FFEE7206B00F0D1FB2046BDE81040C4
:1047700000F0CCBB10BD000010484FF400414207D0
:1047800006D0C01D0D4920F00700411AC1F50041B7
:104790000B4A00230144C2E900030839183A21F00A
:1047A000070111604B600B600B1AC0E900139360A6
:1047B0004FF0004053605061704700006854002083
:1047C000B8000020144E154CA6F29C474FF08058BC
:1047D000DFF84C9012E000BF00F064FBF068C568A1
:1047E000281D00F0FBFAA068401EA0606068401E13
:1047F000606000F077FB2846FFF7A3FF60680028A1
:10480000EAD138680128F9D9C9F80080BFF34F8F81
:10481000BFF36F8FF2E70000704C00204C000020C7
:1048200004ED00E070B51D46049C51B1C4F80020B1
:10483000C4E90F010121204600F0D6FD84F84C5058
:1048400070BD2460F4E700002DE9F05F8846DDE9E3
:104850000B941546834691009A460A9EA522206B2A
:10486000FBF751FD6FF00301206B01EB850108445C
:1048700020F00707780707D0502080F31188BFF396
:104880004F8FBFF36F8FFEE70025B8F1000F0FD0F9
:104890005FF00000221818F8001082F8341018F8A1
:1048A000001011B1401C1028F4D384F8435001E0EB
:1048B00084F83450382E00D33726E662C4E91365F5
:1048C000201D00F0C8FA04F1180000F0C4FA2461B9
:1048D000C6F138006462A061656584F8585052469C
:1048E0005946384600F064FA2060B9F1000F01D053
:1048F000C9F80040BDE8F09F30B5114900E011460D
:104900000A688242FBD34B685C18844203D140683A
:1049100018444860084643681C18944209D1084C62
:10492000183C2468A24209D052681A4442600A68BE
:1049300012680260814200D0086030BD0460F9E76F
:10494000B800002070B5002441600B4D0061914219
:1049500006D8D11A8269914206D2011D286907E062
:104960009A4203D2994201D3012403E0011DE86871
:1049700000F074FA204670BD8800002010B504468F
:1049800000F090FAA06B28B15FF0000400F0AAFAE2
:10499000204610BD0124F9E730B589B03C4D6EE0EA
:1049A0000498002806DADDE90601059A9047049884
:1049B000002864DB069C606910B1201D00F00EFA2F
:1049C00003A800F0D7F8024604980A2857D2DFE877
:1049D00000F00505052D334A05052D3394F8280010
:1049E00040F0010084F828000599A069059B014466
:1049F0002046FFF7A7FF68B3216A2046884794F84E
:104A0000280040073BD5002000900598A1690023AD
:104A100042181946204601F039F9D8B9502080F3E0
:104A20001188BFF34F8FBFF36F8FFEE714F8280F85
:104A300020F00100207022E094F8280040F00100EE
:104A400084F828000598A06128B1811813462046F3
:104A5000FFF778FF13E0502080F31188BFF34F8FEA
:104A6000BFF36F8FFEE794F82800810703D4204638
:104A700000F04CFA03E020F0010084F82800002246
:104A800004A9286800F004FE002889D109B030BDCF
:104A9000880000202DE9FC410F46054600F086FB0A
:104AA00001A800F067F80446019818B101F05CF81D
:104AB000BDE8FC81254EAFB130690068D0B3002756
:104AC000291B3A46306800F0A3FA01F04DF800289F
:104AD000EED11F494FF080500860BFF34F8FBFF3F6
:104AE0006F8FE5E7A542EBD801F03EF8F068274666
:104AF000C068C468201D00F071F994F828004107CF
:104B000019D5A0692B4641193A462046FFF71AFFEE
:104B1000A8B100200346014600902A46204601F035
:104B2000B5F860B9502080F31188BFF34F8FBFF301
:104B30006F8FFEE707E020F0010084F82800216A6B
:104B400020468847B4E70127BAE700008800002024
:104B500004ED00E00648416B096829B1416BC96862
:104B6000C9684968816270474FF0FF31FAE7000079
:104B70004C00002070B5054600F014FF064E0446B8
:104B8000B068844203D200F009F8012000E0002060
:104B900028602046B46070BD88000020F8B5194D2B
:104BA00020E0C068C4680668201D00F017F9216A7B
:104BB0002046884794F82800400713D5A069304460
:104BC000B04206D924616060211DE86800F046F912
:104BD00008E000200346014600903246204601F0DE
:104BE00055F838B1E86801680029DAD12969C5E9C2
:104BF0000310F8BD502080F31188BFF34F8FBFF32F
:104C00006F8FFEE788000020002101E0401C491C56
:104C10000278A52AFAD0C1F38F007047084840688F
:104C2000401C4FF0500080F3118804D0BFF34F8F29
:104C3000BFF36F8FFEE7BFF34F8FBFF36F8FFEE7BA
:104C4000C0000020074CE068016841B1C068002145
:104C5000D0F80000FFF71EFFFFF79EFEF3E70121EB
:104C60000020F7E7880000202DE9F041044600F01D
:104C700019F994F9455004F1240609E0606A48B135
:104C8000304600F039FF08B100F012FA6D1E6DB227
:104C9000002DF3DC4FF0FF3684F8456000F022F978
:104CA00000F000F994F9445004F1100709E020697C
:104CB00048B1384600F020FF08B100F0F9F96D1E48
:104CC0006DB2002DF3DC84F84460BDE8F04100F0E3
:104CD00009B900002DE9F0410546002700F066FA09
:104CE000324E306808B9FFF747FD706905424ED172
:104CF000C5B3083568070ED005F00700C0F10800FD
:104D00000544680707D0502080F31188BFF34F8F08
:104D1000BFF36F8FFEE72DB37068854237D8234805
:104D2000183001460C6801E020460C466168A94233
:104D300002D221680029F7D131688C4227D0076858
:104D40002168016060680837411B10290FD960197C
:104D5000420708D0502080F31188BFF34F8FBFF374
:104D60006F8FFEE713E041606560FFF7C5FD616886
:104D70007068401A7060B268904200D2B06070698A
:104D800001430020C4E90001F068401CF06000F01D
:104D9000EBFE780707D0502080F31188BFF34F8FC8
:104DA000BFF36F8FFEE73846BDE8F081A00000201A
:104DB00010B5031F4FF080741C601B1F21F0010110
:104DC0001960191F044B0B6014390A60091F6FF03A
:104DD000020244380A6010BD1D4C0008D0E90132BF
:104DE00001699A60D0E901235A604A68824201D180
:104DF00082684A60002202610868401E08600868F4
:104E00007047000008B902480068006BFFF7FCBE5D
:104E10004C000020034B036003F15C00086080201D
:104E200010607047B04D0020044B036003F15C003C
:104E300008604FF480701060704700000C50002034
:104E400000F108014FF0FF32C0E90112C1600161B9
:104E500000210160704700210161704730B50B6887
:104E60005A1C02D000F1080202E0026904E0224666
:104E7000546825689D42FAD953684B6099608A60EE
:104E8000516008610168491C016030BD42684A6098
:104E900093688B6093685960916008610168491C50
:104EA00001607047502080F31188BFF34F8FBFF32C
:104EB0006F8F0A494868401C486001280CD1084897
:104EC000006810F0FF0F07D0502080F31188BFF367
:104ED0004F8FBFF36F8FFEE770470000C0000020C8
:104EE00004ED00E00849486828B1401E486001D13F
:104EF00080F311887047502080F31188BFF34F8FE3
:104F0000BFF36F8FFEE70000C000002070B50028DF
:104F10002AD0164DA0F1080460686969084207D1DB
:104F2000502080F31188BFF34F8FBFF36F8FFEE7E0
:104F300022683AB1502080F31188BFF34F8FBFF33E
:104F40006F8FFEE78843606000F030F96068696841
:104F5000084468602046FFF7CFFC2869401C2861A0
:104F6000BDE8704000F000BE70BD0000A000002051
:104F70004FF0E02000210161816105494FF47A7210
:104F80000968B1FBF2F1491E4161072101617047D7
:104F90001C00002010B5FBF75DF9114910280ED355
:104FA00000F1E02090F8F0030A78904207D25020F8
:104FB00080F31188BFF34F8FBFF36F8FFEE709486F
:104FC0000068896800F4E060884207D9502080F3C7
:104FD0001188BFF34F8FBFF36F8FFEE710BD000046
:104FE000C00000200CED00E010B5084B002200BF0F
:104FF00053F832401CB1521C082AF9D310BD43F8B3
:10500000321003EBC201486010BD0000944700203D
:1050100070B515460E460446FFF744FF94F9441058
:105020000020491C01D184F8440094F94510491C22
:1050300001D184F84500FFF755FFA06B28B92A4637
:10504000314604F1240000F051F82046BDE87040DC
:10505000FFF70ABE10B5020014D00F48006B38B13C
:10506000502080F31188BFF34F8FBFF36F8FFEE79F
:1050700000F09CF800211046FFF758FA00F074FD8C
:10508000002807D105494FF080500860BFF34F8FCB
:10509000BFF36F8F10BD00004C00002004ED00E056
:1050A00002490A6A0260C968416070474C000020EA
:1050B00001490120C86170474C00002010B50C4622
:1050C00050B1094909681831FFF7C8FE2046BDE80C
:1050D00010400121FFF72ABA502080F31188BFF356
:1050E0004F8FBFF36F8FFEE74C00002070B5144662
:1050F0000D4668B10A4909681831FFF7C7FE0CB1BF
:105100004FF0FF3521462846BDE87040FFF70EBA44
:10511000502080F31188BFF34F8FBFF36F8FFEE7EE
:105120004C00002030B587B00024039405AA04A9E0
:1051300003A80494FFF76EFEDDE903010094CDE9B6
:105140000110002315A11748059A00F0F2FB164D37
:105150000028E8621FD000F069FD012809D0401C3A
:1051600019D1502080F31188BFF34F8FBFF36F8F99
:10517000FEE7502080F31188BFF34F8FBFF36F8F8E
:105180004FF0FF30A86201206861EC6007B0BDE815
:10519000304000F045B807B030BD000049444C45F0
:1051A00000000000C54700084C0000200248016BC9
:1051B000491C0163704700004C000020164810B5E0
:1051C000016B11B10121C16110BD0021C1610169F3
:1051D000124A01E0B9B1491E01EB810352F82330B4
:1051E000002BF7D001EB810302EB830202F10804EC
:1051F00053685B685360A34201D15B685360DA680F
:105200000260016110BD502080F31188BFF34F8F01
:10521000BFF36F8FFEE700004C000020D447002052
:105220001CB537480168374A914207D1502080F3B6
:105230001188BFF34F8FBFF36F8FFEE700683149CE
:10524000491E884207D1502080F31188BFF34F8F49
:10525000BFF36F8FFEE72C4908780190FF2008709C
:1052600008788DF800009DF800009DF8002000F0FF
:10527000F000904207D0502080F31188BFF34F8F89
:10528000BFF36F8FFEE79DF80000204C00F0500048
:1052900020700720A06005E09DF8002052008DF8E6
:1052A0000020401E9DF800201206F5D4A0600328BF
:1052B00007D0502080F31188BFF34F8FBFF36F8F5B
:1052C000FEE74FF44070A060019808700C48203051
:1052D000016841F470010160016841F070410160B2
:1052E000FFF746FE00206060FAF77CFF084801687F
:1052F00041F040410160FAF761FF00201CBD000051
:1053000000ED00E071C20F4100E400E0C0000020A9
:1053100034EF00E010B5502080F31188BFF34F8FB9
:10532000BFF36F8F00F044FB18B104494FF0805079
:105330000860002080F3118810BD000004ED00E03B
:10534000F8B517460E46050013D005FB06F05030A1
:10535000FFF7C0FC04000AD0002084F8460004F1E6
:1053600050023B46314628460094FFF75BFA204640
:10537000F8BD502080F31188BFF34F8FBFF36F8FBC
:10538000FEE738B5049D18B153B1CAB181B120E030
:10539000502080F31188BFF34F8FBFF36F8FFEE76C
:1053A000502080F31188BFF34F8FBFF36F8FFEE75C
:1053B000502080F31188BFF34F8FBFF36F8FFEE74C
:1053C00039B1502080F31188BFF34F8FBFF36F8F37
:1053D000FEE750241C46012384F846302B460094F7
:1053E000FFF720FA204638BD70B50D46040025D0E1
:1053F000FFF758FDD4E90F20216802FB0011A160DE
:105400000021A163216861600A46D4E90F01401EB2
:1054100000FB0121E16021464FF0FF3001F8440F0D
:10542000487004F110008DB1FFF70AFD04F124006B
:10543000FFF706FDFFF756FD012070BD502080F3F9
:105440001188BFF34F8FBFF36F8FFEE721690029EB
:10545000F0D000F051FB0028ECD004494FF0805010
:105460000860BFF34F8FBFF36F8FE3E704ED00E0F9
:105470002DE9FF4782B01D468A464FF00008040020
:1054800003D0BAF1000F08D011E0502080F311884A
:10549000BFF34F8FBFF36F8FFEE7206C38B1502002
:1054A00080F31188BFF34F8FBFF36F8FFEE7022D9C
:1054B0000AD1E06B012807D0502080F31188BFF398
:1054C0004F8FBFF36F8FFEE700F05EFA3F4F4FF054
:1054D00000094FF0805648B9049838B1502080F345
:1054E0001188BFF34F8FBFF36F8FFEE7FFF7DAFC32
:1054F000A06BE16B884207D3022D05D00498D0B190
:10550000B8F1000F1AD01EE02A4651462046FFF798
:10551000E2F8616A19B104F1240000F0EDFA20B15B
:105520003E60BFF34F8FBFF36F8FFFF7DBFC0120AF
:1055300006B0BDE8F087FFF7D5FC22E06846FFF72C
:10554000AFFD4FF00108FFF7CDFCFFF72FFEFFF78F
:10555000A9FC94F94400401C01D184F8449094F9CA
:105560004500401C01D184F84590FFF7BBFC04A91D
:10557000684600F077F930B12046FFF775FB00F080
:10558000F3FA0020D4E7FFF78DFCA06BE16B8842B3
:1055900013D1FFF7A7FC04F110000499FFF78EFD6B
:1055A0002046FFF761FB00F0DFFA00289ED13E6045
:1055B000BFF34F8FBFF36F8F98E7FFF793FC204641
:1055C000FFF752FB00F0D0FA90E7000004ED00E096
:1055D0002DE9F0471F4690468946040003D0B9F1F3
:1055E000000F08D011E0502080F31188BFF34F8FD7
:1055F000BFF36F8FFEE7206C38B1502080F3118825
:10560000BFF34F8FBFF36F8FFEE7022F0AD1E06B1E
:10561000012807D0502080F31188BFF34F8FBFF3CC
:105620006F8FFEE7FFF7B6FC5020EFF3118680F393
:105630001188BFF34F8FBFF36F8FA06BE16B884270
:1056400006D3022F04D0002086F31188BDE8F0872E
:1056500094F94550A06B3A4649462046FFF73BF87F
:10566000681C04D06D1C84F845500120ECE7606A8A
:105670000028FAD004F1240000F03EFA0028F4D00B
:10568000B8F1000FF1D00121C8F80010EDE70000DB
:105690002DE9F747002683B08A46040003D0BAF10B
:1056A000000F08D011E0502080F31188BFF34F8F16
:1056B000BFF36F8FFEE7206C38B1502080F3118864
:1056C000BFF34F8FBFF36F8FFEE700F05DF9DFF898
:1056D000F4804FF000094FF0805748B9059838B171
:1056E000502080F31188BFF34F8FBFF36F8FFEE719
:1056F000FFF7D8FBA56BC5B151462046FEF7D8FF92
:105700006D1EA563206950B104F1100000F0F4F99A
:1057100028B1C8F80070BFF34F8FBFF36F8FFFF74A
:10572000E1FB012006B0BDE8F087059808B11EB185
:1057300006E0FFF7D7FB27E06846FFF7B1FC01263C
:10574000FFF7D0FBFFF732FDFFF7ACFB94F9440005
:10575000401C01D184F8449094F94500401C01D1CB
:1057600084F84590FFF7BEFB05A9684600F07AF87B
:10577000002820460AD0FFF777FA00F0F5F9204616
:10578000FFF7FCF80028B3D00020CBE7FFF7F6F8CE
:1057900090B104F124000599FFF790FC2046FFF733
:1057A00063FA00F0E1F90028A2D1C8F80070BFF355
:1057B0004F8FBFF36F8F9BE72046FFF755FA00F03E
:1057C000D3F995E704ED00E02DE9F04790468946CE
:1057D000040003D0B9F1000F08D011E0502080F38D
:1057E0001188BFF34F8FBFF36F8FFEE7206C38B186
:1057F000502080F31188BFF34F8FBFF36F8FFEE708
:10580000FFF7C8FB5020EFF3118680F31188BFF338
:105810004F8FBFF36F8FA76BF7B194F94450494690
:105820002046FEF745FF7F1EA763681C04D06D1C51
:1058300084F84450012010E020690028FAD004F1D7
:10584000100000F059F90028F4D0B8F1000FF1D0A1
:105850000121C8F80010EDE7002086F31188BDE8AB
:10586000F08700002DE9F0410C46050011D0C4B1CD
:10587000FFF718FB174BDA686E682068911B471C0E
:1058800017D02F681B6A9F4219D0964217D801245F
:1058900010E0502080F31188BFF34F8FBFF36F8F5C
:1058A000FEE7502080F31188BFF34F8FBFF36F8F57
:1058B000FEE70024FFF716FB2046BDE8F081884292
:1058C00005D9401A20602846FFF7EAFBF1E70020DF
:1058D0002060DCE74C0000202DE9FF5F8346DDE916
:1058E0000E87994616468A469000FFF7F3F90500A1
:1058F0001CD05C20FFF7EEF9040014D000202563D3
:1059000084F85900CDE90240CDE900874B46324684
:1059100051465846FEF798FF2046FEF735FE012017
:1059200004B0BDE8F09F2846FFF7F0FA4FF0FF30D3
:10593000F6E7F0B585B0DDE90B640A9DA6B1DCB1F0
:105940005C2700972663022684F85960002604AF7E
:10595000CDE90246CDE90057FEF776FF2046FEF777
:1059600013FE049805B0F0BD502080F31188BFF3FA
:105970004F8FBFF36F8FFEE7502080F31188BFF386
:105980004F8FBFF36F8FFEE70548416919B1006B78
:1059900018B10020704701207047022070470000B6
:1059A0004C0000200148C068704700004C000020F7
:1059B0002DE9F0412E4C0027206B28B1A069401C36
:1059C000A0613846BDE8F081E668761CE66013D138
:1059D000606B006838B1502080F31188BFF34F8F9F
:1059E000BFF36F8FFEE7606BA16B6163A063206AFA
:1059F000401C2062FFF7AEF8A06ADFF8788086428C
:105A000009D3606B0068A0B1606BC068C568686846
:105A1000864211D2A0622068C06A00EB800158F86B
:105A20002100012800D90127E0690028C9D00127F9
:105A3000C7E74FF0FF30EDE7281DFFF7CFF9A86A61
:105A400018B105F11800FFF7C9F9E86A2169884221
:105A500000D9206100EB800108EB8100291DFFF7D0
:105A600015FAE86A2168C96A8842CAD30127C8E7DB
:105A70004C000020D447002070B504004FF0000116
:105A800033D01B4D2868844207D0502080F3118802
:105A9000BFF34F8FBFF36F8FFEE7206D38B1401E0D
:105AA0002065E36CE26A9A421FD040B11DE05020AD
:105AB00080F31188BFF34F8FBFF36F8FFEE7201D78
:105AC000FFF78CF9E06CE062C0F13800A061E06A99
:105AD0002969884200D92861064900EB800001EB62
