:020000040800F2
:10000000B04A0020A1010008BF1B000857170008D4
:10001000BD1B0008730700088132000800000000C3
:10002000000000000000000000000000F32E0008A7
:100030007507000800000000F12E0008F52E0008EA
:10004000BB010008BB010008BB010008BB010008A0
:10005000BB010008BB010008BB010008BB01000890
:10006000BB010008BB010008BB010008BB01000880
:10007000BB010008BB010008BB010008BB01000870
:10008000BB010008BB010008BB010008BB01000860
:10009000BB010008BB010008BB010008BB01000850
:1000A000BB010008BB010008BB010008BB01000840
:1000B000BB010008BB010008BB010008BB01000830
:1000C000BB010008BB010008BB010008BB01000820
:1000D000BB010008BB010008BB0100087532000825
:1000E000BB010008BB010008BB010008BB01000800
:1000F000BB010008BB010008BB010008BB010008F0
:10010000BB010008BB010008BB010008BB010008DF
:10011000BB010008BB010008BB010008BB010008CF
:10012000BB010008BB010008BB010008BB010008BF
:10013000BB010008BB010008BB010008BB010008AF
:10014000BB010008BB010008BB010008BB0100089F
:10015000BB010008BB010008BB010008BB0100088F
:10016000BB010008BB010008BB010008BB0100087F
:10017000BB010008BB010008BB0100080000000033
:10018000BB010008BB010008DFF810D000F070FAD6
:1001900000480047B93B0008AFF30080B04A002098
:1001A0000648804706480047FEE7FEE7FEE7FEE711
:1001B000FEE7FEE7FEE7FEE7FEE7FEE7912F000819
:1001C000890100082DE9F05F0546002092469B4614
:1001D00088460646814640241BE02846414647465D
:1001E000224600F07CF853465A46C01A914110D37B
:1001F00011461846224600F063F82D1A67EB0108F5
:100200004F4622460120002100F05AF817EB000962
:100210004E41201EA4F10104DFDC484631462A4647
:100220004346BDE8F09F40EA01039B0703D009E085
:1002300008C9121F08C0042AFAD203E011F8013BD2
:1002400000F8013B521EF9D27047D2B201E000F82B
:10025000012B491EFBD270470022F6E710B513466A
:100260000A4604461946FFF7F0FF204610BD00F08D
:10027000004230F000400AD0C10D01F56071C0F3BA
:10028000160042EA0151C20840071143704700209E
:100290000146704730B50B4601460020202201245C
:1002A00009E021FA02F59D4205D303FA02F5491B44
:1002B00004FA02F52844151EA2F10102F1DC30BD5A
:1002C000202A04DB203A00FA02F100207047914016
:1002D000C2F1200320FA03F3194390407047202A0B
:1002E00004DB203A21FA02F00021704721FA02F3E0
:1002F000D040C2F1200291400843194670472DE9D1
:10030000FE4F804681EA0300C00F0C46009021F0AA
:10031000004123F00045B8EB0200A94105D2404658
:10032000214690461C460B46024623F000401043EF
:1003300047D0270DC7F30A00C3F30A510290401AB1
:10034000019040286BDAC3F3130040F4801B00983F
:10035000924620B10023D2EB030A63EB0B0B01980A
:100360005946C0F140025046FFF7AAFF06460D4627
:1003700050465946019A00F08DF910EB0800614192
:10038000002487EA115284EAE7731A4340D0009AA6
:1003900062B3019A012A4FEA075215DC001B61EB98
:1003A00002014FF0004202EA0752CDE90042001C70
:1003B00041F5801132462B4600F08DF903B0BDE8BF
:1003C000F08F40462146F9E7001B61EB0201001C5B
:1003D00041F5801300185B412018A2F5001747EB88
:1003E000030140EAD570B6196D4111E06D084FEA7E
:1003F000360645EAC0754FEA0752001B61EB020161
:10040000001C41F5801149084FEA300000195141A4
:1004100032462B4603B0BDE8F04F00F04DB90098CE
:10042000012240000023D0EB020263EBE07300984E
:1004300021464FEAE074B8EB000061EB0401E9E704
:1004400083F000435BE781F0004158E72DE9FE4F60
:1004500081EA030404F0004421F0004100944FF0CD
:10046000000B23F0004350EA01045ED052EA03047B
:100470005BD0C3F30A54C1F30A552C44A4F2F334FD
:100480000194A0FB0254C1F3130141F48011C3F3A2
:10049000130343F4801301FB024400FB034E840A60
:1004A000970A44EA815447EA8357A4FB07680295F8
:1004B0008D0A05FB07854FEA932C04FB0C54270596
:1004C000029D4FEA065847EA1637B5EB08056EEB72
:1004D000070C870E920E47EA811742EA8312A7FBA8
:1004E0000201B6EB0B0164EB00042B0D43EA0C3365
:1004F0005E1844EB1C50DA465146E7FB0201C5F397
:1005000013044FEA0B3343EA14534FEA0432019CBD
:1005100043EA0603A4F10C040294009CCDE900B464
:1005200000F0D9F803B0BDE8F08F00200146F9E7EC
:100530002DE9F04D81EA030404F0004B21F0004561
:1005400014464FF0000A23F0004150EA050220D083
:1005500054EA01021DD0C5F30A570246C5F313033E
:10056000C1F31300C1F30A5640F4801543F480131D
:10057000A7EB0608101BD64608F2FD3873EB050002
:1005800002D308F1010801E092185B41B8F1000FB5
:1005900003DA00200146BDE8F08D00204FF4801101
:1005A000064684460EE0171B73EB050705D3121BA6
:1005B00063EB050306434CEA010C49084FEA30009F
:1005C00092185B4150EA0107EDD152EA030012D0C4
:1005D00082EA040083EA0501084305D0101BAB4101
:1005E00006D20122002306E000224FF0004302E081
:1005F0006FF0010253101AEB06004CEB085110EBA0
:100600000A0041EB0B01BDE8F04D00F055B8C1F315
:100610000A52C1F3130140F2FF3341F480119A42B0
:1006200002DA00200146704740F233439A42A2F2B8
:10063000334202DC5242FFF752BEFFF741BE0000D8
:1006400030B5041E71F1000404DB4FF00044404259
:1006500064EB0101141E73F1000405DB1C464FF02E
:100660000043524263EB0403994208BF904230BDFD
:10067000064C074D06E0E06840F0010394E80700EF
:1006800098471034AC42F6D3FFF782FDA45400081B
:10069000C4540008202A06DBCB17203A41FA02F0A6
:1006A00043EAE07306E041FA02F3D040C2F12002CF
:1006B000914008431946704710B5141E73F10004A9
:1006C00008DA401C41F1000192185B411A4301D144
:1006D00020F0010010BD2DE9F04D92469B4611B16E
:1006E000B1FA81F202E0B0FA80F220329046FFF7D0
:1006F000E7FD04460F4640EA0A0041EA0B01534673
:100700005A46084313D0114653EA010019D0C8F1E4
:1007100040025046FFF7E3FD05460E465046594657
:100720004246FFF7CDFD084305D0012004E02046F6
:100730003946BDE8F08D0020054346EAE0762C43BB
:1007400037430A986305E40AA0EB08000022FD0A7B
:1007500044EA47540A3002D500200146E9E7010582
:1007600010196941DDE9084500196941BDE8F04DFE
:10077000A2E7FEE7704772B6FEE7000030B5B3F5BA
:10078000804F05D06FF0704140F82210002030BD3E
:100790008C690B688D6823434C688989240144EA7D
:1007A0000524234343EA014150F82230014C234001
:1007B0001943E9E70000F0CF10B50A6850F822307D
:1007C00023F0010340F822308C68082C23D000234A
:1007D0004A682243CC681C430B6922431A434B6985
:1007E0000E4C1A43CB691A430B6A1A434B6A1A43DD
:1007F0008B6A1A43CB6A1A430B6B1A438B691343F8
:10080000CA6B09681A4350F82130A343134340F8D8
:100810002130002010BD4023DAE700007FFF0F00E9
:1008200030B5D1E9003443EA04138C688D89240281
:1008300044EA054423430C8A074D00EB820005EB94
:10084000045423430C7D6D0105EB04648969234343
:100850000B434360002030BD0000F0FF2DE9F04164
:100860000446876D00F0A4F9064694F8350000258B
:10087000022806D08020606584F834500120BDE84D
:10088000F0812068016821F016010160206841694B
:1008900021F080014161206C08B9A06C20B1206872
:1008A000016821F0080101602068016821F0010160
:1008B00001600CE000F07CF9801B052807D920209E
:1008C0006065032084F8350084F83450D7E7206849
:1008D0000068C007EED194F85C103F208840B860F3
:1008E000012084F8350084F834500020C7E790F8E0
:1008F0003510022903D08021416501207047052170
:1009000080F835100068016821F0010101600020C5
:1009100070470000F0B587B014216846FFF79CFCD3
:100920001E480168002937D1012101601C480024BC
:10093000026842F00102026000680225CDE900155C
:1009400000F001000C270326CDE90470CDE9024632
:100950006946144800F02EF84FF68070CDE9000586
:1009600002AA694682E8D0000F4800F023F84CF252
:100970003370CDE9000502AA694682E8D0000B4831
:1009800000F018F86802CDE9000502AA694682E87D
:10099000D000074800F00EF807B0F0BD00000020BE
:1009A000383802400014024000100240000C02409F
:1009B000001802402DE9F84FDFF8BCA10022012504
:1009C00003264FF00F090AF1040BAAF1040E00BF31
:1009D0000B6805FA02F42340A34270D10F7907F0A7
:1009E0000307012F01D0022F16D187684FEA420872
:1009F00006FA08FC27EA0C07D1F80CC00CFA08FC30
:100A00004CEA070CC0F808C04768A7430C79C4F348
:100A1000001494403C4344600C79E443A4070AD09A
:100A2000C4684FEA420C06FA0CF7BC438F6807FA19
:100A30000CF72743C7600C7904F00304022C12D191
:100A4000D40800EB840CDCF820405707FF0E09FAAD
:100A500007F824EA0804D1F8108008FA07F848EAF1
:100A60000408CCF8208004684FEA420C06FA0CF720
:100A7000BC430F7907F0030707FA0CF72743076019
:100A80004C6814F4403F70D03C4C276847F48047D2
:100A90002760246822F0030704F480440094384C53
:100AA00007EB040CDCF8084897074FEA177809FAB7
:100AB00008F7BC43334FB84202D1002724E054E08A
:100AC000314FB84201D101271EE0304FB84201D169
:100AD000022719E02E4FB84201D1032714E02D4F11
:100AE000B84201D104270FE02B4FB84201D10527AE
:100AF0000AE02A4FB84201D1062705E0284FB84244
:100B000001D1072700E0082707FA08F72743CCF8A8
:100B10000878DAF800405746D1F804C09C435FEAF1
:100B2000CC2C00D51C433C60DBF800405F46D1F87C
:100B300004C09C435FEA8C2C00D51C433C60DEF86B
:100B400000407746D1F804C09C435FEA8C3C00D556
:100B50001C433C60084F083F3C68D1F804C09C43EC
:100B60005FEACC3C00D51C433C60521C102AFFF4C9
:100B70002FAFBDE8F88F0000083C01404438024028
:100B80000030014000000240000402400008024022
:100B9000000C024000100240001402400018024005
:100BA000001C02400AB1816170470904FBE70000A4
:100BB00001488068704700001000002002488168EA
:100BC0000278114481607047100000200B4810B576
:100BD000016841F400710160016841F480610160C5
:100BE000016841F480710160032000F06FF80F206C
:100BF00000F006F800F024F8002010BD003C024090
:100C000070B50D4D04464FF47A712878B1FBF0F0C1
:100C10000A490968B1FBF0F000F03CFB48B9102C20
:100C200007D200222146501E00F030F800206C60F0
:100C300070BD012070BD00001000002008000020E1
:100C40000A4808B5016841F480410160006800F479
:100C5000804000900548001F016841F0805101600C
:100C6000006800F08050009008BD00004438024049
:100C7000002809DB00F01F0201219140400980009B
:100C800000F1E020C0F8001170470000F0B40E4BF6
:100C90001B680C46C3F30223C3F10705042D00D9DA
:100CA0000425191D072901D2002300E0DB1E0126BF
:100CB00006FA05F1491E214099409E40761E1640D5
:100CC0003143F0BC02F002BB0CED00E0064900F03D
:100CD000070208684FF6FF03184040EA0220034A63
:100CE00010430860704700000CED00E00000FA05BA
:100CF0002DE9F0470E46050065D0DFF81481D8F8DD
:100D00000000F7B200F00700B04207D288F8007088
:100D1000D8F8000000F00700B04254D128683D4CDC
:100D2000810712D5400703D5206840F4E0502060C9
:100D30002878000703D5206840F4604020602068D0
:100D4000A96820F0F000084320602878C0072DD063
:100D5000304968680839012812D0022813D00328C6
:100D600011D00968890700292DDA216821F00301D3
:100D700001432160FFF71CFF814641F2883A0EE0F3
:100D800009688903EFE709688901ECE7FFF710FFBD
:100D9000A0EB0901514502D90320BDE8F087206886
:100DA000696800F00C00B0EB810FEFD1D8F80010AB
:100DB000404601F00701B14207D90770006800F012
:100DC0000700B04201D00120E7E72878400705D5A9
:100DD0002068E96820F4E050084320602878000784
:100DE00006D52068296920F4604040EAC1002060EF
:100DF00000F038F82168084AC1F30311515CC8407B
:100E00000649086006480068FFF7FAFE0020C4E7BC
:100E1000003C024008380240CC3C0008080000209A
:100E2000140000200448054900680968044AC1F319
:100E30008221515CC84070470800002008380240F9
:100E4000DC3C00080448054900680968044AC1F30D
:100E50004231515CC8407047080000200838024009
:100E6000DC3C0008154810B5006810F00C0214486E
:100E700013D01449042A0FD0082A0ED10F4C241F76
:100E80002268236802F03F025B0207D52068C0F3A6
:100E90008810A0FB010106E0084610BD2168C1F3DF
:100EA0008811A1FB00010023FFF78CF92168C1F331
:100EB0000141491C4900B0FBF1F010BD0838024067
:100EC0000024F40040787D012DE9F84F04006ED035
:100ED0002078DFF84C93C007A9F104054AD009F146
:100EE00004000168C1F38101012908D00068C0F342
:100EF000810002280AD1D9F80000400206D52868EE
:100F0000800337D560680028E1D033E06068B0F531
:100F1000803F10D0B0F5A02F286810D020F480308A
:100F20002860286820F4802028606068A8B1FFF756
:100F30003FFE06460DE0286840F48030F4E740F4B8
:100F400080202860F7E700BFFFF732FE801B64288F
:100F500073D828688003F7D50CE0FFF729FE064612
:100F600005E000BFFFF724FE801B6428F0D8286846
:100F70008003F7D42078DFF8AC8280074FF0000AB6
:100F80003ED5A748001D016811F00C0F08D000687D
:100F9000C0F3810002280BD1D9F80000400207D429
:100FA0002868800716D5E068012800D112E033E1F7
:100FB000E068B8B10120C8F80000FFF7F9FD064667
:100FC00005E000BFFFF7F4FD801B0228C0D82868A9
:100FD0008007F7D52868216920F0F80040EAC100B1
:100FE00028600DE0C8F800A0FFF7E2FD064604E027
:100FF000FFF7DEFD801B02281FD828688007F7D482
:101000002078000722D5864F87486169703771B113
:1010100001210160FFF7CCFD064604E0FFF7C8FDA3
:10102000801B022809D838688007F7D50EE0C0F881
:1010300000A0FFF7BDFD064605E082E0FFF7B8FD22
:10104000801B02287DD838688007F7D420784007B5
:1010500068D5DFF8CCB100270BF13C0BDBF80000C2
:10106000C0000BD4DBF8001041F08051CBF8001029
:10107000DBF80000012700F0805000906B4E3068D4
:10108000C00510D4306840F480703060FFF790FDE8
:10109000009005E0FFF78CFD0099401A022850D817
:1010A0003068C005F6D55E4EA0686C3601280FD0BA
:1010B0000528306810D020F001003060306820F042
:1010C00004003060A068B8B1FFF772FD00900FE037
:1010D000306840F00100F4E740F004003060F7E7CA
:1010E000FFF766FD0099411A41F28830814266D8C7
:1010F00030688007F4D50EE0FFF75AFD009007E056
:10110000FFF756FD0099411A41F28830814256D8C6
:1011100030688007F4D42FB1DBF8001021F0805143
:10112000CBF80010A069C8B33D49091D0968C1F397
:10113000810102294AD00228504607D0C8F8600031
:1011400000E03CE0FFF734FD04463BE04746C8F8CA
:101150006000FFF72DFD064605E000BFFFF728FD04
:10116000801B02282BD828688001F7D4D4E9070116
:101170000843A16A2E4A490802EB0141626A41EA2A
:101180008211084394F82C1040EA0161C9F800105C
:1011900001203866FFF70CFD044606E03EE000BF84
:1011A000FFF706FD001B022809D828688001F7D543
:1011B00034E000BFFFF7FCFC001B022802D903202B
:1011C000BDE8F88F28688001F4D427E00128F7D023
:1011D000D9F80000E26900F4800191421CD1226A32
:1011E00000F03F01914217D147F6C071626A014099
:1011F000B1EB821F10D1A26A4FF0FF3300F44031EF
:1012000003EB5202B1EB024F06D194F82C1000F020
:101210007060B0EB016F01D00120D1E70020CFE773
:101220000438024000004742800E474200700040F0
:101230000000FFFF70B515460E46040003D094F879
:10124000490010B107E0012070BD002084F848007B
:10125000204600F01DF804F108012068FFF7ACFA01
:101260003146A2682068FFF7DBFAD4E9010229467B
:10127000236BFFF783FA2168A06851F8202042F021
:10128000010241F82020012084F84900002070BDAF
:10129000FFF740BB10B5401EB0F1807F01D30120A5
:1012A00010BD4FF0E02460610F21601702F00EF8CE
:1012B0000020A06107202061002010BD704770470A
:1012C000F8B5016804460868CA684B6910F00F0F4A
:1012D0004FF0000559D003F0010602F49077374330
:1012E00065D0C10705D0D10503D5616C41F001017E
:1012F0006164410705D5D90703D0616C41F0020153
:101300006164810705D5D90703D0616C41F0040100
:101310006164010707D502F02001314303D0616CFD
:1013200041F008016164616C00293AD0800604D55F
:10133000900602D5204601F061FE20684069616C8C
:10134000C0F38010090700D460B3204601F02FFEDF
:1013500020684069400621D52068143050E8001FFD
:1013600021F0400140E80012002AF5D1E06BA8B15D
:1013700072490165E06BFFF7BAFA002811D0E06B03
:10138000016D01B0BDE8F040084783060FD5930614
:101390000DD52046BDE8F84001F030BE2046FFF7ED
:1013A0008EFFF8BD2046FFF78AFF6564F8BD266B07
:1013B0002023012E7ED1C6067CD5D6067AD50868B4
:1013C0004868009048694FF0020640064DD5E26B30
:1013D000106840684FF480770004000C3AD0A18D6B
:1013E000814237D9E085D069B8422DD020680C30D1
:1013F00050E8001F21F4807140E80012002AF5D166
:101400002068143050E8001F21F0010140E800126C
:10141000002AF5D12068143050E8001F21F0400167
:1014200040E80012002AF5D184F842302563206894
:101430000C3050E8001F21F0100140E80012002A93
:10144000F5D1E06BFFF70AFA6663A08DE18D401AD3
:1014500081B206E0A18D8142A8D1D069B842A5D160
:1014600066632046FFF72AFFF8BDA08DE18D401A84
:1014700081B2E08D0028F7D00029F5D020680C302B
:1014800050E8002F22F4907240E80027002FF5D199
:101490002068143050E8002F22F0010240E80027B5
:1014A000002FF5D184F84230256320680C3050E8D5
:1014B000002F00E006E022F0100240E80023002B9D
:1014C000F3D1CDE705062BD5150629D594F84100B3
:1014D0002128C9D1A068B0F5805F01D12069B0B1E1
:1014E000206A411C2162216800784860E08C401E1F
:1014F0000004000CE084B7D12068C16821F08001AD
:10150000C1602068C16841F04001C160F8BD206A37
:101510000088C0F308004860206A801C2062E5E76C
:101520004006F3D55006F1D5CA68204622F04002A5
:10153000CA6084F8413000F00DF9F8BDA12F000811
:1015400070B5040004D094F84100002510B106E005
:10155000012070BD84F84050204600F023F824207C
:1015600084F841002068C16821F40051C160204620
:1015700001F0A6FD2068016921F490410161206815
:10158000416921F02A0141612068C16841F400519C
:10159000C1606564202084F8410084F842006563DE
:1015A000002070BD70B586B0044614216846FEF771
:1015B00053FE284E226800212748022303240725D2
:1015C000B2421DD1244A1432166846F01006166045
:1015D000126802F010020592026842F001020260F5
:1015E000006802AA00F00100059082E83200600263
:1015F000CDE9000369461948FFF7DCF906B070BD74
:10160000174EB242FAD1144A1032166846F48026B8
:101610001660126802F480220592026842F002020B
:101620000260006802AA00F00200059082E8320021
:101630004FF44060CDE9000369460A48FFF7BAF964
:10164000002211462720FFF721FB2720FFF710FB80
:10165000D4E7000000100140303802400000024092
:10166000004800400004024090F84230202B01D096
:101670000220704721B11AB10023036301F0A6BD17
:101680000120704710B50068074988420AD1074811
:10169000007800F073F8BDE81040012203490448C7
:1016A000FFF7E2BF10BD0000004800400E00002020
:1016B000D00000202DE9F843044690F841009846F8
:1016C00016460D46202802D00220BDE8F88385B1D9
:1016D0007EB100206064212084F84100FFF768FAA1
:1016E000A6848146E684A0682027B0F5805F02D0FA
:1016F00003E00120E9E7206910B12E4600250EE045
:1017000000260CE08021204601F07BFDA8B9C6B17F
:1017100016F8010B21684860E08C401EE084E08CE4
:101720004B464FF00002CDF800800028EAD14FF080
:101730004001204601F065FD40B184F8417003206E
:10174000C3E735F8020BC0F30800E3E784F8417003
:101750000020BAE77047FEE70148C0687047000004
:101760001C000020014AD080118170471C0000201D
:101770000149C860704700001C00002070B5104C83
:101780000E49002522788854521CD0B2207080283F
:1017900001D3257070BD2C28FCD30A1852F8042CF4
:1017A000B2F1FF4FF6D12C38C0B2014403482C22CD
:1017B0008030FEF738FD01206070EAE71801002054
:1017C0000C0000202DE9F041654890B041780029D7
:1017D0007ED00021417064232C2262496248FFF7C9
:1017E00069FF6248FFF7C4FF5E4C2068FEF73FFDCB
:1017F00041EC100B5EA153EC102B02A801F052FD3E
:1018000000214FF47840FFF7ADFFFFF7A5FFC08838
:1018100002A900EB400080B200F02CFA6068FEF7ED
:1018200026FD41EC100B57A153EC102B02A801F040
:1018300039FD00211F20FFF795FFFFF78DFFC088BE
:101840004FF6FF7707EA800002A900F013FA6069FB
:10185000FEF70DFD05460E46A068FEF708FD41ECBB
:10186000100BCDE9005653EC102B4BA102A801F050
:1018700019FD4FF6E07800214046FFF773FFFFF7B0
:101880006BFFC08802A900EB400007EA400000F0AF
:10189000F1F9A069FEF7EBFC05460E46E068FEF79D
:1018A000E6FC41EC100BCDE9005653EC102B41A1A6
:1018B00002A801F0F7FC00214046FFF753FFFFF7B5
:1018C0004BFFC08802A907EAC00000F0D3F900E08E
:1018D00043E0E069FEF7CBFC05460E462069FEF7C3
:1018E000C6FC41EC100BCDE9005653EC102B38A18F
:1018F00002A801F0D7FC00214046FFF733FFFFF7B5
:101900002BFFC08802A900EB800007EA400000F02E
:10191000B1F9606AFEF7ABFC05460E46206AFEF799
:10192000A6FC41EC100BCDE9005653EC102B2FA177
:1019300002A801F0B7FC00213846FFF713FFFFF7BC
:101940000BFFC08802A900EB400007EA800000F00E
:1019500091F900213846FFF705FF10B0BDE8F0818E
:101960000C00002098010020880000202C0000209E
:1019700054656D703A20252E3166204320202020AA
:101980002000000048756D3A2020252E3166202564
:1019900025202020202000006163635F783A202505
:1019A0002E33662020206779726F5F783A20252ECB
:1019B000336600006163635F793A20252E33662029
:1019C00020206779726F5F793A20252E33660000F8
:1019D0006163635F7A3A20252E3366202020677981
:1019E000726F5F7A3A20252E336600004C61743A9C
:1019F00020252E3466202020202020204C61743A9F
:101A000020252E346600000010B588B01C216846E1
:101A1000FEF722FC15484FF02041042301601449D1
:101A2000C0E9011300211022C160C0E904128161E4
:101A3000C16114020162C0E90914C162016341631A
:101A4000816341640F20CDE9003002AB83E80700D9
:101A50001120CDE90501002269460448FFF7EAFBA1
:101A6000002801D0FEF787FE08B010BD3800002026
:101A7000040100A02DE9F04186B014216846FEF76C
:101A8000EBFB2F480024016841F020010160016850
:101A900001F020010591016841F0800101600168B9
:101AA00001F080010591016841F0100101600168B9
:101AB00001F010010591016841F002010160016827
:101AC00001F002010591016841F00801016001681F
:101AD00001F008010591016841F001010160016810
:101AE00001F001010591016841F0400101600068C9
:101AF000144F00F040004FF4E07505900122294694
:101B00003846FFF74FF80122DFF83C80D603314614
:101B10004046FFF747F800950125CDE90154694695
:101B200038460394FEF746FF0096CDE90154694616
:101B300040460394FEF73EFF06B0BDE8F08100008A
:101B40003038024000140240000402400C4810B536
:101B50000A4901604FF4E1314160002181600C22AB
:101B6000C160C0E904128161C161FFF7E9FC00288E
:101B700003D0BDE81040FEF7FEBD10BD00100140CF
:101B8000880000200C4810B50A4901604FF4165136
:101B90004160002181600C22C160C0E904128161B2
:101BA000C161FFF7CDFC002803D0BDE81040FEF76F
:101BB000E2BD10BD00480040D0000020FEE7FEE777
:101BC000044B4FF4007108B1012200E000221846D6
:101BD000FEF7E8BF0014024070B51C46154600F041
:101BE00083F9044905FB04F00989BDE8704000F061
:101BF000A1B800001C00002001B5009801E0401EC3
:101C000000900028FBD108BDF0B5194E203A1FFA0C
:101C100082FCF568AA88EB882D6802FB03F7FC17A5
:101C200007EB5474C4F3C7040CFB045500F05CF9D3
:101C30004FF0D0424FF43050108000213389F688A5
:101C4000802711E05FF0000015F801C027FA00FEC0
:101C50001CEA0E0F01D0568000E05380401CC0B239
:101C60000828F1D3491CC9B2A142EBD3F0BD000052
:101C70001C000020F0B50F46064600250F4C19E069
:101C8000E068638881882944994203D9C188002586
:101C900031448EB2C088A1883044884201D90025E1
:101CA0002E4631462846FFF7AFFFE0687F1C80884C
:101CB000284485B23A78002AE2D1F0BD1C00002009
:101CC000194818B44FF020410160194A1749416082
:101CD0001368002143F0010313601268042302F02B
:101CE0000102009200F150029C06C2E90031C2E9F3
:101CF00002311161C2E9051408228360C0E90312B0
:101D00001022C0E905211202C161C0E90912C162B5
:101D10000163416381631102C16300F1500218BC89
:101D20001146FFF787BA000044460020040100A0D6
:101D30003838024010B54FF0D0434FF430540022F1
:101D40001C8001E05980521C8242FBD310BD000070
:101D50002D4810B5016886B041F0080101600168A6
:101D600001F008010591016841F01001016001686E
:101D700001F010010591016841F020010160016846
:101D800001F020010591016841F040010160006807
:101D900000F0400005901C480830016841F0010146
:101DA00001600068694600F0010005900120019083
:101DB0000290032003904FF4806000901348FEF7D8
:101DC000F9FD4FF40060124C009069462046FEF782
:101DD000F1FD022001900C2004904CF23370009031
:101DE00069460C48FEF7E6FD4FF6807000906946A4
:101DF0000948FEF7DFFD40F20120009069462046C9
:101E0000FEF7D8FD06B010BD303802400018024081
:101E100000140240000C02400010024010B50728D8
:101E200042D8234AC4074FF4F07110704FF448733E
:101E30003BD05380A2F804104FF0D0414FF45853D8
:101E40000B80400148804FF42850088000204880D3
:101E500042F6012008800020488042F602200880D7
:101E60005088401EC0F307234B8042F603230B80AB
:101E7000C0B248804FF42C5008800020488042F6C1
:101E8000013008800020488042F6023008809088A7
:101E9000401EC0F307224A8042F603320A80C0B2D5
:101EA00048804FF43050088010BD51809380C3E7C4
:101EB0001C00002010B5FFF74BFFFFF701FF00F0FB
:101EC000FDFF00F040F8074C2078FFF7A7FF002146
:101ED000A38862880846FFF77FFEBDE81040012016
:101EE000FFF76EBE1C00002030B54FF0D0444FF419
:101EF00028552580050A658042F601252580C5B252
:101F0000658042F6022525801044401E020A628048
:101F10006A1C2280C0B260804FF42C502080080AD6
:101F2000608042F601302080C8B2608042F6023004
:101F30002080C818401E010A618042F603312180CA
:101F4000C0B2608030BD38B54FF0D0404FF4704122
:101F50000180552141804FF201010180AA21418079
:101F60004FF202010180522141804FF203010180B2
:101F7000082141804FF204010180012141804FF48A
:101F8000304101800D2141804BF2010101800D2182
:101F900041804BF2020101800D2141804FF431411B
:101FA00001800D2141804BF2011101800D21418002
:101FB0004BF2021101800D2141804FF4324101802A
:101FC000002141804BF201210180002141804BF230
:101FD00002210180002141804FF4364101804421DB
:101FE00041804BF201610180442141804BF202614A
:101FF0000180442141804FF43741018034214180E8
:102000004BF201710180342141804BF20271018059
:10201000342141804FF438410180342141804BF616
:1020200001010180342242804A1C02803423438013
:102030004FF43F430380012343804FF43343038035
:102040000F2343804BF2013303800F2343804BF275
:10205000023303800F2343804FF43943038034233A
:1020600043804BF601130380342343804BF6021365
:102070000380342343804FF4354303800823438097
:102080004BF201530380082343804BF20253038039
:10209000082343804FF442430380032343804FF4DB
:1020A0003A430380342343804BF6012303803423D7
:1020B00043804BF602230380342343804FF43C4398
:1020C0000380002444805C1C0480782545809D1C8E
:1020D0000580002545804FF43D450580002545805D
:1020E0004BF601550580782545804BF60255058055
:1020F000002545804FF43E450580002545804BF680
:1021000001650580642545804FF451450580002513
:1021100045804DF201150580332545804DF20215AD
:102120000580002545804DF2031505803425458046
:102130004DF204150580002545804DF205150580FA
:102140003A2545804DF206150580002545804DF263
:10215000071505804A2545804DF2081505800025A4
:1021600045804DF2091505805C2545804DF20A1524
:102170000580002545804DF20B15058081254580A1
:102180004DF20C150580002545804DF20D1505809A
:10219000A62545804DF20E150580002545804DF29F
:1021A0000F150580E52545804DF2101505800125A8
:1021B00045804DF211150580132545804DF212150D
:1021C0000580012545804DF2131505805425458075
:1021D0004DF214150580012545804DF21515058039
:1021E000822545804DF216150580012545804DF26A
:1021F00017150580CA2545804DF218150580022562
:1022000045804DF219150580002545804DF21A15BF
:102210000580022545804DF21B150580012545806E
:102220004DF21C150580022545804DF21D150580D7
:10223000342545804DF21E150580022545804DF25E
:102240001F150580672545804DF220150580022564
:1022500045804DF221150580842545804DF22215DB
:102260000580022545804DF223150580A425458073
:102270004DF224150580022545804DF22515058077
:10228000B72545804DF226150580022545804DF283
:1022900027150580CF2545804DF22815058002259C
:1022A00045804DF229150580DE2545804DF22A1521
:1022B0000580022545804DF22B150580F2254580CD
:1022C0004DF22C150580022545804DF22D15058017
:1022D000FE2545804DF22E150580032545804DF2E3
:1022E0002F150580102545804DF2301505800325FA
:1022F00045804DF231150580332545804DF232156C
:102300000580032545804DF2331505806D254580F8
:102310004FF452450580002545804DF2012505808A
:10232000332545804DF202250580002545804DF27C
:1023300003250580342545804DF2042505800025C0
:1023400045804DF2052505803A2545804DF206254C
:102350000580002545804DF2072505804A254580EA
:102360004DF208250580002545804DF209250580A0
:102370005C2545804DF20A250580002545804DF2FB
:102380000B250580812545804DF20C250580002513
:1023900045804DF20D250580A62545804DF20E2580
:1023A0000580002545804DF20F250580E5254580F7
:1023B0004DF210250580012545804DF2112505803F
:1023C000132545804DF212250580012545804DF2EB
:1023D00013250580542545804DF2142505800125DF
:1023E00045804DF215250580822545804DF2162544
:1023F0000580012545804DF217250580CA254580B9
:102400004DF218250580022545804DF219250580DD
:10241000002545804DF21A250580022545804DF2A4
:102420001B250580012545804DF21C2505800225D0
:1024300045804DF21D250580342545804DF21E2531
:102440000580022545804DF21F25058067254580C2
:102450004DF220250580022545804DF2212505807D
:10246000842545804DF222250580022545804DF2C8
:1024700023250580A42545804DF2242505800225CD
:1024800045804DF225250580B72545804DF226254E
:102490000580022545804DF227250580CF25458002
:1024A0004DF228250580022545804DF2292505801D
:1024B000DE2545804DF22A250580022545804DF216
:1024C0002B250580F22545804DF22C25058002251F
:1024D00045804DF22D250580FE2545804DF22E25A7
:1024E0000580032545804DF22F2505801025458068
:1024F0004DF230250580032545804DF231250580BC
:10250000332545804DF232250580032545804DF267
:10251000332505806D2545804FF453450580002502
:1025200045804DF201350580332545804DF2023559
:102530000580002545804DF2033505803425458012
:102540004DF204350580002545804DF205350580A6
:102550003A2545804DF206350580002545804DF22F
:10256000073505804A2545804DF208350580002550
:1025700045804DF2093505805C2545804DF20A35D0
:102580000580002545804DF20B350580812545806D
:102590004DF20C350580002545804DF20D35058046
:1025A000A62545804DF20E350580002545804DF26B
:1025B0000F350580E52545804DF210350580012554
:1025C00045804DF211350580132545804DF21235B9
:1025D0000580012545804DF2133505805425458041
:1025E0004DF214350580012545804DF215350580E5
:1025F000822545804DF216350580012545804DF236
:1026000017350580CA2545804DF21835058002250D
:1026100045804DF219350580002545804DF21A356B
:102620000580022545804DF21B350580012545803A
:102630004DF21C350580022545804DF21D35058083
:10264000342545804DF21E350580022545804DF22A
:102650001F350580672545804DF220350580022510
:1026600045804DF221350580842545804DF2223587
:102670000580022545804DF223350580A42545803F
:102680004DF224350580022545804DF22535058023
:10269000B72545804DF226350580022545804DF24F
:1026A00027350580CF2545804DF228350580022548
:1026B00045804DF229350580DE2545804DF22A35CD
:1026C0000580022545804DF22B350580F225458099
:1026D0004DF22C350580022545804DF22D350580C3
:1026E000FE2545804DF22E350580032545804DF2AF
:1026F0002F350580102545804DF2303505800325A6
:1027000045804DF231350580332545804DF2323517
:102710000580032545804DF2333505806D254580C4
:102720004FF454450580002545804DF20145058054
:10273000332545804DF202450580002545804DF248
:1027400003450580342545804DF20445058000256C
:1027500045804DF2054505803A2545804DF20645F8
:102760000580002545804DF2074505804A254580B6
:102770004DF208450580002545804DF2094505804C
:102780005C2545804DF20A450580002545804DF2C7
:102790000B450580812545804DF20C4505800025BF
:1027A00045804DF20D450580A62545804DF20E452C
:1027B0000580002545804DF20F450580E5254580C3
:1027C0004DF210450580012545804DF211450580EB
:1027D000132545804DF212450580012545804DF2B7
:1027E00013450580542545804DF21445058001258B
:1027F00045804DF215450580822545804DF21645F0
:102800000580012545804DF217450580CA25458084
:102810004DF218450580022545804DF21945058089
:10282000002545804DF21A450580022545804DF270
:102830001B450580012545804DF21C45058002257C
:1028400045804DF21D450580342545804DF21E45DD
:102850000580022545804DF21F450580672545808E
:102860004DF220450580022545804DF22145058029
:10287000842545804DF222450580022545804DF294
:1028800023450580A42545804DF224450580022579
:1028900045804DF225450580B72545804DF22645FA
:1028A0000580022545804DF227450580CF254580CE
:1028B0004DF228450580022545804DF229450580C9
:1028C000DE2545804DF22A450580022545804DF2E2
:1028D0002B450580F22545804DF22C4505800225CB
:1028E00045804DF22D450580FE2545804DF22E4553
:1028F0000580032545804DF22F4505801025458034
:102900004DF230450580032545804DF23145058067
:10291000332545804DF232450580032545804DF233
:10292000334505806D2545804FF4554505800025CC
:1029300045804DF201550580332545804DF2025505
:102940000580002545804DF20355058034254580DE
:102950004DF204550580002545804DF20555058052
:102960003A2545804DF206550580002545804DF2FB
:10297000075505804A2545804DF2085505800025FC
:1029800045804DF2095505805C2545804DF20A557C
:102990000580002545804DF20B5505808125458039
:1029A0004DF20C550580002545804DF20D550580F2
:1029B000A62545804DF20E550580002545804DF237
:1029C0000F550580E52545804DF210550580012500
:1029D00045804DF211550580132545804DF2125565
:1029E0000580012545804DF213550580542545800D
:1029F0004DF214550580012545804DF21555058091
:102A0000822545804DF216550580012545804DF201
:102A100017550580CA2545804DF2185505800225B9
:102A200045804DF219550580002545804DF21A5517
:102A30000580022545804DF21B5505800125458006
:102A40004DF21C550580022545804DF21D5505802F
:102A5000342545804DF21E550580022545804DF2F6
:102A60001F550580672545804DF2205505800225BC
:102A700045804DF221550580842545804DF2225533
:102A80000580022545804DF223550580A42545800B
:102A90004DF224550580022545804DF225550580CF
:102AA000B72545804DF226550580022545804DF21B
:102AB00027550580CF2545804DF2285505800225F4
:102AC00045804DF229550580DE2545804DF22A5579
:102AD0000580022545804DF22B550580F225458065
:102AE0004DF22C550580022545804DF22D5505806F
:102AF000FE2545804DF22E550580032545804DF27B
:102B00002F550580102545804DF230550580032551
:102B100045804DF231550580332545804DF23255C3
:102B20000580032545804DF2335505806D25458090
:102B30004FF456450580002545804DF2016505801E
:102B4000332545804DF202650580002545804DF214
:102B500003650580342545804DF204650580002518
:102B600045804DF2056505803A2545804DF20665A4
:102B70000580002545804DF2076505804A25458082
:102B80004DF208650580002545804DF209650580F8
:102B90005C2545804DF20A650580002545804DF293
:102BA0000B650580812545804DF20C65058000256B
:102BB00045804DF20D650580A62545804DF20E65D8
:102BC0000580002545804DF20F650580E52545808F
:102BD0004DF210650580012545804DF21165058097
:102BE000132545804DF212650580012545804DF283
:102BF00013650580542545804DF214650580012537
:102C000045804DF215650580822545804DF216659B
:102C10000580012545804DF217650580CA25458050
:102C20004DF218650580022545804DF21965058035
:102C3000002545804DF21A650580022545804DF23C
:102C40001B650580012545804DF21C650580022528
:102C500045804DF21D650580342545804DF21E6589
:102C60000580022545804DF21F650580672545805A
:102C70004DF220650580022545804DF221650580D5
:102C8000842545804DF222650580022545804DF260
:102C900023650580A42545804DF224650580022525
:102CA00045804DF225650580B72545804DF22665A6
:102CB0000580022545804DF227650580CF2545809A
:102CC0004DF228650580022545804DF22965058075
:102CD000DE2545804DF22A650580022545804DF2AE
:102CE0002B650580F22545804DF22C650580022577
:102CF00045804DF22D650580FE2545804DF22E65FF
:102D00000580032545804DF22F65058010254580FF
:102D10004DF230650580032545804DF23165058013
:102D2000332545804DF232650580032545804DF2FF
:102D3000336505806D2545804FF470450580552528
:102D400045804FF201050580AA2545804FF2020516
:102D50000580522545804FF20305058008254580F2
:102D60004FF204050580002545804FF43545058068
:102D7000502545804FF431450580CC2545804BF2E8
:102D800001150580002545804FF436450580052551
:102D900045804FF437450580772545804BF2017516
:102DA0000580772545804D1E0580012545800180E1
:102DB0000321418002804180511C01800321418018
:102DC000038002214180048000214180991C018000
:102DD000002141804FF43D410180012141804BF6AB
:102DE00001510180842141804BF6025101801C2158
:102DF00041804BF6035101801C2141804BF6045168
:102E00000180002141804FF449410180D02141805F
:102E10004CF601110180022141804CF60211018023
:102E2000502141804CF603110180502141804CF625
:102E300004110180502141804FF45851018000213C
:102E400041804FF454510180002141804FF47F4173
:102E50000180AA2141804FF60171018055214180F6
:102E60004FF602710180252141804FF603710180E8
:102E7000012141804FF47C410180162141804FF6B1
:102E800001410180A22141804FF6024101802621AB
:102E900041804FF468510180062242800180552113
:102EA00041804FF4885101806FF07F410091491EAD
:102EB0000091FCD14FF42451018038BD70B50B4D09
:102EC0004FF40064002221462846FDF76BFE40F6D1
:102ED000FF263046FEF790FE012221462846FDF7E8
:102EE00061FE3046BDE87040FEF786BE0014024029
:102EF00070477047FDF762BE30B593B03021684629
:102F0000FDF7AAF914210CA8FDF7A6F91E48002523
:102F1000016841F080510160006800F0805011901C
:102F20001A48016841F4804101600068022400F4FD
:102F30008040119001200090000401908001CDE9B3
:102F40000640192008904FF4A870CDE90904042028
:102F50000B906846FDF7B8FF08B172B6FEE70CA902
:102F60000F2081E831004FF4A0500F904FF48050B3
:102F7000109005210CA8FDF7BBFE002801D072B609
:102F8000FEE713B030BD0000403802400070004042
:102F90000248016841F470010160704788ED00E06B
:102FA00010B5806B0021C185FEF789F910BD01685D
:102FB0000C3151E8002F22F4907241E80023002BDD
:102FC000F5D10168143151E8002F22F0010241E8E7
:102FD0000023002BF5D1016B012909D101680C31C7
:102FE00051E8002F22F0100241E80023002BF5D118
:102FF000202180F8421000210163704708B590F845
:103000004210222901D0022008BD82684FF480536B
:103010009A4201D1016921B1816A9A421BD04AB119
:103020000AE00268816A5268C2F308020A80816A73
:10303000891C08E0026972B10268526802F07F02DE
:103040000A70816A491C8162C18D491E0904090CFC
:10305000C18503D01BE002685268F1E70168CA68C5
:1030600022F02002CA600168CA6822F48072CA6035
:1030700001684A6922F001024A61202180F8421069
:1030800000214163026B012A03D0FEF7FBFA002006
:1030900008BD016301680C3151E8002F22F01002D5
:1030A00041E80023002BF5D101680A68D20602D559
:1030B0000A6849680091818DFEF700F9E7E7000092
:1030C00070B5044600680169E26821F4405111437B
:1030D00001612169A068E2690843616911430843FD
:1030E0002168CA6849F20C639A430243CA602068A7
:1030F0004169A26921F4407111434161314920685D
:10310000884202D03049884202D1FDF79BFE01E09F
:10311000FDF788FEE2690023192164253226B2F505
:10312000004F626828D0A0FB0101930F9200FDF7C9
:1031300049F80146B0FBF5F06FF01802504301EB7F
:10314000800006EB0010B0FBF5F000F0F002B1FBE0
:10315000F5F002EB0012B1FBF5F06FF018035843E5
:1031600001EB800006EB0010B0FBF5F000F00F0063
:1031700021681044886070BDA0FB010192185B417A
:10318000FDF720F80146B0FBF5F00201B1FBF5F0C8
:103190006FF01803584301EB800006EBC000B0FB52
:1031A000F5F000F0F80002EB4002B1FBF5F05843F7
:1031B00001EB800006EBC000B0FBF5F000F007006B
:1031C000D6E70000001001400014014081628285B2
:1031D000C28500214164222180F84210016921B199
:1031E0000168CA6842F48072CA6001684A6942F0A4
:1031F00001024A610068C16841F02001C1600020FD
:1032000070472DE9F843984617460D460446089E38
:1032100024E0701C22D0FDF7CBFCA0EB0800B042EC
:103220001AD8CEB12068C168490717D5802D15D0AE
:10323000402D13D00168C94309070FD40168002548
:10324000406800902046FFF7B2FE0820606484F8D2
:1032500040500120BDE8F8830320FBE720680068A8
:1032600035EA000004D00020B842D2D00020F1E7B7
:103270000120F9E70148FEF723B80000D000002044
:10328000FEE700000FB4054B10B503A9044A0298ED
:1032900000F0FEF810BC5DF814FB0000A13B000834
:1032A000340000200FB4084B10B504A902AA0398FB
:1032B00000F0EEF8044602A9002000F06CFC204665
:1032C00010BC5DF814FB0000973B00080907090ECD
:1032D000002804DB00F1E02080F80014704700F0C3
:1032E0000F0000F1E02080F8141D704702E008C8CC
:1032F000121F08C1002AFAD170477047002001E070
:1033000001C1121F002AFBD1704700002DE9FF5FA9
:1033100082B00021DDE90430020DDDF840B0034346
:1033200018D044F61050A2F2FF32424315141198FF
:1033300001281FD0A5EB0B00401C5FEA000A4FF0EC
:1033400000064E4FDFF83891B046504615D5CAF109
:10335000000413E0119801244AA3012801D16FEA67
:103360000B010298119AC0E90031C0E9024206B08F
:10337000BDE8F09FCBF10000DFE704460021404AA2
:10338000491842EB0450CDE9001012E0E00707D0E5
:1033900032463B4640464946FDF758F88046894646
:1033A00032463B4610461946FDF750F806460F4692
:1033B0006410002CEAD1DDE90401DDE90023BAF153
:1033C000000F06DAFDF742F842464B46FDF73EF89D
:1033D00005E0FDF7ADF842464B46FDF7A9F8044677
:1033E0000E460022284BFDF72BF903D84FF0FF3093
:1033F000014607E00022254B20463146FCF77FFFBF
:10340000FDF705F9102409E0002C0ADB0A2200234D
:10341000FCF7D8FE039B30321A55641E50EA0102B5
:10342000F2D1641C039AC4F111031444119A012AC5
:1034300003D0012208430DD10AE0084304D0002044
:103440004FF0110B119072E7A3EB0B056D1E0DE011
:103450005B4504DD4FF0000205F1010504E003DAED
:103460004FF00002A5F10105002AECD00298119955
:10347000C0E90231C0E9004579E7000000001440CE
:103480000000F03F300000000000F0430000E03F8B
:103490002DE9FF4F95B09A46884606460025EEE195
:1034A000252877D100242746F94A0121039400E01A
:1034B000044316F8013F203B01FA03F01042F7D114
:1034C00030782A2811D06FF02F033078A0F1300225
:1034D000092A16D8039A44F0020402EB820203EB95
:1034E00042021044761C0390EFE758F8042B039235
:1034F000002A03DA504244F40054039044F00204DA
:10350000761C30782E2816D116F8010F44F00404EA
:103510002A280DD06FF02F023078A0F13003092B4C
:1035200009D807EB870302EB4303C718761CF3E7C0
:1035300058F8047B761C30786C280FD006DC4C28B9
:1035400017D068280DD06A2814D104E0742810D050
:103550007A280FD10DE044F400140AE044F48014FA
:1035600001E044F440147278824202D104F58014E0
:10357000761C761C307866280BD013DC582877D060
:1035800009DC002875D04528F6D04628F4D0472815
:103590001AD193E118E0632835D0642879D06528E2
:1035A00012D18BE1702873D008DC6728F1D069282C
:1035B0006FD06E280DD06F2806D1ACE073282CD0C8
:1035C000752874D0782853D05246179990476D1CAF
:1035D00054E1C4F30250022809D003280DD0D8F8D2
:1035E000001004280DD00D6008F1040846E1D8F859
:1035F0000010EA17C1E90052F6E7D8F800100D8074
:10360000F2E70D70F0E718F8041B8DF800100020A9
:103610008DF80100EB46012003E058F804BB4FF0A1
:10362000FF3061074FF0000102D40DE009F1010104
:103630008946B9420FDA8145F8DB1BF809100029E9
:10364000F4D108E009F1010189468142FADB1BF857
:1036500009100029F6D103985346A0EB090721462B
:103660003846179A00F080FA284400EB090507E075
:1036700044E008E10DE01BF8010B52461799904712
:10368000B9F10109F7D2534621463846179AF2E0BC
:1036900039E00A21C4F302524FF0000B0091022AD4
:1036A00006D058F8040BC117032A09D00AE023E01A
:1036B00008F1070020F00702F2E80201904605E059
:1036C00000B2C117042A01D140B2C117002906DA9D
:1036D0000A460021404261EB02012D2202E0220550
:1036E00004D52B228DF80420012203E0E20701D04B
:1036F0002022F7E7914657E00A2100E010214FF021
:10370000000B00910BE010214FF0000B44F004047B
:103710000827009103E008204FF0000B0090C4F34D
:103720000252022A05D058F8040B0021032A08D0BF
:1037300008E008F1070020F00702F2E802019046D5
:1037400003E080B2042A00D1C0B24FF00009220782
:103750002AD53278702A07D0DDF800C08CF0100C22
:103760005CEA0B0C05D00EE040228DF8042001220B
:1037700008E050EA010306D030238DF804308DF8BC
:10378000052002229146009B83F0080353EA0B03B5
:103790000AD150EA010201D1620705D530228DF825
:1037A00004204FF001097F1E3278582A04D039A234
:1037B0000C920CAA02920BE03BA2F9E75B46009A3E
:1037C000FCF700FD0C9B9B5C029A521E0292137048
:1037D00050EA0102F2D1029804A9081A00F1200B64
:1037E000600702D524F4803400E001275F4502DD44
:1037F000A7EB0B0000E0002000EB0B01009003980A
:103800004944401A0390E00306D453462146179AD0
:10381000039800F0A9F90544002706E001A85246E4
:10382000C05D179990476D1C7F1C4F45F6DBE00388
:103830000CD553462146179A039800F095F9054494
:1038400004E030205246179990476D1C0099481E9D
:1038500000900029F5DC08E00298029952460078B1
:10386000491C0291179990476D1CBBF10001ABF107
:10387000010BF1DC5BE100F065F90544761C307862
:1038800000287FF40DAE19B02846BDE8F08F000087
:103890000928010030313233343536373839616226
:1038A00063646566000000003031323334353637EA
:1038B000383941424344454600000000600700D4C7
:1038C000062708F1070020F00700F0E802238046F1
:1038D00003F0004C5FEA0C0001D097A009E020053E
:1038E00001D596A005E0E00701D095A001E0AFF278
:1038F0004C001390307823F0004365280CD006DC90
:10390000452809D046281DD047287FD13BE06628AE
:1039100018D067287AD136E00021112F01DB112061
:1039200000E0781CCDE9000104A90CA8FFF7EEFC2B
:10393000DDE90D010C9A4FF0000B07F1010910921F
:1039400000914EE04FF000400097CDE9011004A92E
:103950000CA8FFF7DBFCDDE90D020C9B0F994FF083
:10396000000B91461093009211B9791C00EB0109EC
:10397000B7EB090003D4C0F1FF3B07F10109A9EB44
:103980000700019042E0012F00DA01270021112FEA
:1039900001DD112000E03846CDE9000104A90CA8A2
:1039A000FFF7B4FCDDE90D010C9A00914FF0000B1C
:1039B000B946109221070FD4009A4A4503DA91467E
:1039C00001E0A9F10109B9F1010F05DD109AA9F192
:1039D0000101515C3029F4D0B84202DA10F1040F31
:1039E00003DA0121CDE9011010E0002803DC834453
:1039F000A9EB000102E0411C494500DD8946A0EB2E
:103A00000B00401C01904FF000400290200705D4AD
:103A10000198484502DB4FF0FF30019000208DF8FF
:103A20004B0002980DF14B07B0F1004F25D002205A
:103A30000C902B200D90029800280CDA4042029046
:103A40002D200D9007E00A210298FCF723FC30316D
:103A5000029007F8011D0C99481E0C900029F2DC19
:103A600002980028EFD1791E0D980870307800F088
:103A7000200040F0450007F8020D11A8C01BC01D32
:103A800002901398007800B1012000EB0901019821
:103A900001EBE071029801440398401A401E039024
:103AA000E00306D453462146179A039800F05CF8C9
:103AB00005441398007818B15246179990476D1C29
:103AC000E00323D553462146179A039800F04CF89B
:103AD00005441BE0BBF1000F07DB0098584504DDEF
:103AE0001098179910F80B0001E0179930205246F2
:103AF000904701980BF1010B401E05F10105019063
:103B000004D12E205246179990476D1CB9F100013F
:103B1000A9F10109DEDC05E017F8010B52461799FF
:103B200090476D1C0299481E02900029F4DC534610
:103B30002146179A03989EE62D0000002B000000F6
:103B4000200000002DE9F041044600251E461746DE
:103B5000880404D405E039462020B0476D1C641E5B
:103B6000F9D52846BDE8F0812DE9F041044600254D
:103B70001E469046C80301D5302700E02027880460
:103B800004D505E041463846B0476D1C641EF9D5A2
:103B90002846BDE8F0810A68531C0B60107070471E
:103BA00013B54FF6FF73012269460248FDF782FD07
:103BB00000981CBD88000020FDF708F8FFF79CF96D
:103BC000FDF758FFFDF7C2FFFDF7DCFFFDF71CFF17
:103BD0001BA0FFF757FB23A0FFF754FB0122294945
:103BE0002948FDF741FDFEF765F90122D103274879
:103BF000FCF7D8FF0620FEF711F94FF6FF740021FD
:103C00002046FDF7AFFD00214FF4F0734FF44872EA
:103C10000846FDF7E1FF1E48FDF7AAFDFDF79CFDF4
:103C2000C0881CA1FEF726F8FDF796FDC08820A1EC
:103C300004EA4000FEF71EF8FDF7C4FDFCE70000B3
:103C400053544D333246343037204C6F526120523A
:103C500065636569766572205265616479210D0A34
:103C6000000000005541525431202D3E2050432C7D
:103C7000205541525433202D3E204C6F52610D0A85
:103C8000000000000E000020D000002000040240D0
:103C90002C000020202020202053544D3332204C73
:103CA0006F5261205265616479202020202000003D
:103CB0002D2D2D2D2D2D2D2D2D2D2D2D2D2D2D2D34
:103CC0002D2D2D2D2D2D2D2D2D2D00000000000032
:103CD00000000000010203040607080900000000BC
:103CE00001020304000000000000000000000000CA
:103CF00000000000000000000000000000000000C4
:103D000000000000000000000000000000000000B3
:103D100000000000000000000000000000000000A3
:103D20000000000000000000000000000000000093
:103D30000380038001800180018001800180018077
:103D4000018001800180018001800180000000006D
:103D5000038003C00380000000000000000000009A
:103D60000000000000000000000000000000000053
:103D70000E700E700E700E700E700C300C30000055
:103D80000000000000000000000000000000000033
:103D90000000000000000000000000000000000023
:103DA0000000000000000000000000000000000013
:103DB0000000000006180638063006307FFE7FFE41
:103DC0000C300C300C300C307FFE7FFE0C601C6021
:103DD000186018601860000000000000000000007B
:103DE000000000000000000000000000000000C013
:103DF00000C000C007F81FF838C031C031803980DA
:103E00003D801F8007F001F803BC031C030C031C5A
:103E1000233C3FF83FE007000600060000000000DA
:103E20000000000000000000000000000000000092
:103E30001C077E06630C6318633863307E603CE0C9
:103E400000C0018003800338067E0CC61CC618C65D
:103E500030C670EE607C0000000000000000000032
:103E60000000000000000000000000000000000052
:103E700000000FC01FE018703870387018701CE018
:103E80000FC00F003F8C3B8C71CC60EC607C7038B5
:103E9000707C3FFE1FCF000000000000000000000B
:103EA0000000000000000000000000000000000012
:103EB00003C003C0038001800180018001800000F5
:103EC00000000000000000000000000000000000F2
:103ED00000000000000000000000000000000000E2
:103EE00000000000000000000000000000000000D2
:103EF0000030006000E001C00380030007000700FD
:103F000006000E000E000E000E000E000E00060051
:103F1000070007000380038001C000E0007000304C
:103F20000000000000000000000000000000000091
:103F30000C000E000700038001C001C000E000E09B
:103F40000060007000700070007000700060006021
:103F500000E000E001C001C0038007000E000C007B
:103F60000000000000000000000000000000000051
:103F700001800180018819980FF803C003C01FF861
:103F800019980180018001800000000000000000FD
:103F90000000000000000000000000000000000021
:103FA0000000000000000000000000000000000011
:103FB000000000000000000000000180018001807E
:103FC0000180018001807FFE7FFE018001800180F1
:103FD00001800180000000000000000000000000DF
:103FE00000000000000000000000000000000000D1
:103FF00000000000000000000000000000000000C1
:10400000000000000000000000000000000003802D
:1040100003C003C001C001C001C007801F00100021
:104020000000000000000000000000000000000090
:104030000000000000000000000000000000000080
:104040000000000000000FF00FF000000000000072
:104050000000000000000000000000000000000060
:104060000000000000000000000000000000000050
:104070000000000000000000000000000000000040
:10408000000000000000000000000000000003C06D
:1040900003C003C003C000000000000000000000D7
:1040A0000000000000000000000000000000000010
:1040B000001C00180038003000700060006000C074
:1040C00000C001C0018003800300070006000E004D
:1040D0000C000C0018001800380030000000000030
:1040E00000000000000000000000000000000000D0
:1040F0000000000007F01FF81838381C300C303C66
:10410000707E71EE73CE7F0E7E0E380C300C381C34
:104110001C381FF007E00000000000000000000055
:10412000000000000000000000000000000000008F
:104130000000000003C00FC03FC039C001C001C073
:1041400001C001C001C001C001C001C001C001C067
:1041500001C03FFC3FFC0000000000000000000028
:10416000000000000000000000000000000000004F
:10417000000000000FE03FF0183800380018001869
:1041800000380030007000E001C0038007000E001E
:104190001C003FFC3FFC000000000000000000008D
:1041A000000000000000000000000000000000000F
:1041B000000000001FE01FF0003800380038003811
:1041C000007007E007F00078001C001C001C001CB9
:1041D00000383FF03FC00000000000000000000079
:1041E00000000000000000000000000000000000CF
:1041F0000000000000F001F001B00330073006308D
:104200000C301C303830303070307FFE7FFE003094
:10421000003000300030000000000000000000000E
:10422000000000000000000000000000000000008E
:10423000000000001FF81FF81800180018001800F0
:1042400018001FE01FF80038001C001C001C00189C
:1042500000381FF01FC00000000000000000000038
:10426000000000000000000000000000000000004E
:104270000000000001F807F80E001C0018003800CC
:1042800031C03FF83E3C301C300C300C380C380C40
:104290001C1C1FF807E000000000000000000000E8
:1042A000000000000000000000000000000000000E
:1042B000000000003FFC3FFC001C001800380030EC
:1042C0000070006000E000C001C0018003800700B2
:1042D00007000E000E0000000000000000000000BB
:1042E00000000000000000000000000000000000CE
:1042F000000000000FF01E78381C381C381C3C18D9
:104300001E780FE007E01E783C3C381C300C300C67
:10431000381C1FF80FF00000000000000000000033
:10432000000000000000000000000000000000008D
:10433000000000000FE01E783838301C701C700C34
:10434000300C381C3EFC0FEC001C001C0018003820
:1043500000F01FE01F00000000000000000000004F
:10436000000000000000000000000000000000004D
:1043700000000000000000000000000003C003C0B7
:1043800003C0018000000000000000000000018068
:1043900003C003C003C000000000000000000000D4
:1043A000000000000000000000000000000000000D
:1043B00000000000000000000000000003C003C077
:1043C00003C001800000000000000000000003C0E6
:1043D00003C003C001C001C001C007800F0000007E
:1043E00000000000000000000000000000000000CD
:1043F000000000000000000000100038007001E024
:1044000003C007000E003C001C000E00078001C026
:1044100000E0007800100000000000000000000034
:10442000000000000000000000000000000000008C
:10443000000000000000000000000000000000007C
:1044400000003FFC0000000000003FFC3FFC0000BB
:10445000000000000000000000000000000000005C
:10446000000000000000000000000000000000004C
:10447000000000000000000008001C000E00070003
:1044800003C000E00070003C0038007001E00380D1
:1044900007001E00080000000000000000000000EF
:1044A000000000000000000000000000000000000C
:1044B0000E000FC003E000700038003800380038EC
:1044C000007803F003C003000300030000000000B5
:1044D0000700078007000000000000000000000047
:1044E00000000000000000000000000000000000CC
:1044F00001E007F80E1C1C0E18063006300361F3AD
:1045000063F36633E673CE63CC63CC66CC66CCE6ED
:10451000CFFCC73C60006000600030003C301FF002
:10452000000000000000000000000000000000008B
:104530000000000003C003C007E006E006600E7044
:104540000C700C301C381838381C3FFC3FFC700EC7
:10455000700E6006E0070000000000000000000090
:10456000000000000000000000000000000000004B
:10457000000000003FF03FF83838381C381C38186D
:1045800038383FF03FF0383C381C380C380C381CB9
:10459000383C3FF83FE00000000000000000000051
:1045A000000000000000000000000000000000000B
:1045B0000000000007FC0FFC1E003800380030002F
:1045C00070007000700070007000300038003C0017
:1045D0001E040FFC03FC00000000000000000000AF
:1045E00000000000000000000000000000000000CB
:1045F000000000003FE03FF03038301C300C300E3F
:10460000300E300E300E300E300E300C301C301CA0
:1046100030783FF03F800000000000000000000004
:10462000000000000000000000000000000000008A
:10463000000000001FF81FF81800180018001800EC
:1046400018001FF81FF818001800180018001800AC
:1046500018001FF81FF80000000000000000000014
:10466000000000000000000000000000000000004A
:10467000000000001FF81FF81800180018001800AC
:1046800018001FF81FF8180018001800180018006C
:1046900018001800180000000000000000000000D2
:1046A000000000000000000000000000000000000A
:1046B0000000000007FC0FFC1C00380030007000F8
:1046C000700070FC70FC700C700C700C300C380CAE
:1046D0001C0C0FFC07FC00000000000000000000A4
:1046E00000000000000000000000000000000000CA
:1046F00000000000300C300C300C300C300C300C52
:10470000300C3FFC3FFC300C300C300C300C300CCB
:10471000300C300C300C00000000000000000000E5
:104720000000000000000000000000000000000089
:10473000000000003FFC3FFC0180018001800180FF
:104740000180018001800180018001800180018061
:1047500001803FFC3FFC0000000000000000000062
:104760000000000000000000000000000000000049
:10477000000000001FF01FF000300030003000305B
:1047800000300030003000300030003000300030A9
:1047900010701FE01FC000000000000000000000BB
:1047A0000000000000000000000000000000000009
:1047B00000000000381C3838387038E038C03980C4
:1047C0003B003F003F003B003B8039C038E0387081
:1047D0003838383C381C00000000000000000000A1
:1047E00000000000000000000000000000000000C9
:1047F000000000001C001C001C001C001C001C0011
:104800001C001C001C001C001C001C001C001C00C8
:104810001C001FFC1FFC0000000000000000000046
:104820000000000000000000000000000000000088
:1048300000000000381C381C6C3E6C3E6C6E666ECE
:10484000666E67CE63CE638661866006600660062C
:104850006006600660060000000000000000000026
:104860000000000000000000000000000000000048
:1048700000000000380C3C0C3C0C3E0C360C370C95
:10488000330C338C318C31CC30CC30EC306C307C10
:10489000303C303C301C00000000000000000000F4
:1048A0000000000000000000000000000000000008
:1048B000000000000FF01FF8381C381C700E700E3E
:1048C000700E600660066006700E700E700C381C6C
:1048D0003C381FF80FE0000000000000000000005E
:1048E00000000000000000000000000000000000C8
:1048F000000000003FE03FF8383C381C380C380C12
:10490000380C381C38783FF03FC038003800380089
:1049100038003800380000000000000000000000EF
:104920000000000000000000000000000000000087
:10493000000000000FF01FF8381C381C700E700EBD
:10494000700E600660066006700E700E700C381CEB
:104950003C381FF80FE00180018001E200FF003CBD
:104960000000000000000000000000000000000047
:10497000000000003FE03FF8383838183818381881
:1049800038383FF03FC039E0386038703838383850
:10499000381C381C380E0000000000000000000029
:1049A0000000000000000000000000000000000007
:1049B000000000000FF81FF8380038003000380001
:1049C0001E000F8007F000F8003C001C001C001CBB
:1049D000003C3FF83FE00000000000000000000045
:1049E00000000000000000000000000000000000C7
:1049F000000000007FFE7FFE0180018001800180B9
:104A0000018001800180018001800180018001809E
:104A10000180018001800000000000000000000013
:104A20000000000000000000000000000000000086
:104A300000000000300C300C300C300C300C300C0E
:104A4000300C300C300C300C300C300C300C301C76
:104A5000381C1FF80FE000000000000000000000FC
:104A60000000000000000000000000000000000046
:104A700000000000E0077006700E700E380C381C45
:104A800038181C181C380C300E700E70066007E0C9
:104A900007E003C003C000000000000000000000A9
:104AA0000000000000000000000000000000000006
:104AB0000000000060066006600660066006600692
:104AC000618663C673C673CE76EE366C366C3C7CFC
:104AD0003C3C3C3C381C0000000000000000000092
:104AE00000000000000000000000000000000000C6
:104AF00000000000700E381C1C381C380E7006E0D8
:104B000007E003C003C003C007E00E701C301C3870
:104B1000381C701E700E0000000000000000000035
:104B20000000000000000000000000000000000085
:104B300000000000E006700E380C381C1C381C30D9
:104B40000E70066007E003C00180018001800180D3
:104B500001800180018000000000000000000000D2
:104B60000000000000000000000000000000000045
:104B7000000000003FFC3FFC001C0038007000609B
:104B800000E001C00380038007000E000C001C0041
:104B900038003FFC3FFC0000000000000000000067
:104BA0000000000000000000000000000000000005
:104BB00007F007F0060006000600060006000600E3
:104BC00006000600060006000600060006000600B5
:104BD000060006000600060006000600060007F0B4
:104BE00000000000000000000000000000000000C5
:104BF000380018001C000C000C000600060007001E
:104C000003000380018001C000C000E0006000607C
:104C10000030003000380018001C000C00000000BC
:104C20000000000000000000000000000000000084
:104C30000FE00FE000600060006000600060006056
:104C40000060006000600060006000600060006064
:104C500000600060006000600060006000600FE0C5
:104C60000000000000000000000000000000000044
:104C700000000000038003C006E006600C301C3812
:104C80001818301C000000000000000000000000A8
:104C90000000000000000000000000000000000014
:104CA0000000000000000000000000000000000004
:104CB00000000000000000000000000000000000F4
:104CC00000000000000000000000000000000000E4
:104CD000000000000000000000000000FFFFFFFFD8
:104CE00000000000000000000000000000000000C4
:104CF0001C000E0007000180000000000000000002
:104D000000000000000000000000000000000000A3
:104D10000000000000000000000000000000000093
:104D20000000000000000000000000000000000083
:104D30000000000000000000000000001FF01EF84E
:104D40000018001C001C07FC1FFC3C1C381C301CFD
:104D5000387C3FFC1FDC0000000000000000000069
:104D60000000000000000000000000000000000043
:104D70003800380038003800380038003BF03FF881
:104D80003E1C380C380C380C380C380C380C381CDD
:104D900038383FF01FE00000000000000000000075
:104DA0000000000000000000000000000000000003
:104DB00000000000000000000000000003F80FF8F1
:104DC0001E001C00380038003800380038001C0075
:104DD0001E000FF803F800000000000000000000B3
:104DE00000000000000000000000000000000000C3
:104DF000001C001C001C001C001C001C07FC1FFCED
:104E0000181C381C301C301C301C301C301C383C2A
:104E1000387C1FDC0F9C0000000000000000000038
:104E20000000000000000000000000000000000082
:104E300000000000000000000000000007F01E78E5
:104E4000181C381C300C3FFC3FFC30003000380090
:104E50001C001FFC07FC0000000000000000000018
:104E60000000000000000000000000000000000042
:104E7000007E01FE03C00380030003000300030063
:104E80007FFC7FFC0300030003000300030003001A
:104E90000300030003000000000000000000000009
:104EA0000000000000000000000000000000000002
:104EB0000000000000000000000000000FFE1C7E4B
:104EC00018383818381838381C781FF03B803000F4
:104ED00038001FF81FFC300E700E700C3C3C1FF8A1
:104EE0000180000000000000000000000000000041
:104EF0003800380038003800380038003BF03FF800
:104F00003C18381C381C381C381C381C381C381C01
:104F1000381C381C381C0000000000000000000095
:104F20000000000000000000000000000000000081
:104F3000018003C003C00180000000001FC01FC02B
:104F400001C001C001C001C001C001C001C001C059
:104F500001C03FFC3FFC000000000000000000001A
:104F60000000000000000000000000000000000041
:104F70000060007000700070000000003FF03FF023
:104F800000700070007000700070007000700070A1
:104F900000700070007000700070006039E03FC069
:104FA00006000000000000000000000000000000FB
:104FB000180018001800180018001800181C1838DD
:104FC000187019E01BC01F001B8019C019E018F0F1
:104FD0001878183C181E00000000000000000000B7
:104FE00000000000000000000000000000000000C1
:104FF0001FC01FC001C001C001C001C001C001C06D
:1050000001C001C001C001C001C001C001C001C098
:1050100001C03FFC3FFC0000000000000000000059
:105020000000000000000000000000000000000080
:105030000000000000000000000000006F3C6FEC6A
:1050400079CE71CE718E718E718E718E718E718EE0
:10505000718E718E718E0000000000000000000053
:105060000000000000000000000000000000000040
:1050700000000000000000000000000033F03FF8D6
:105080003C18381C381C381C381C381C381C381C80
:10509000381C381C381C0000000000000000000014
:1050A0000000000000000000000000000000000000
:1050B0000000000000000000000000000FF01FF8DA
:1050C000381C300C300C700E700E700E300C381C0A
:1050D00038381FF80FE0000000000000000000005A
:1050E00000000000000000000000000000000000C0
:1050F0000000000000000000000000003BF03FF84E
:105100003E1C380C380C380C380C380C380C381C59
:1051100038383FF03FE038003800380038003800B9
:10512000000000000000000000000000000000007F
:1051300000000000000000000000000007FC1F7CD1
:10514000181C381C301C301C301C301C301C383CE7
:10515000387C1FDC0F9C001C001C001C001C001C69
:10516000000000000000000000000000000000003F
:1051700000000000000000000000000019F81BFC07
:105180001E0C1C0C180E180018001800180018002F
:1051900018001800180000000000000000000000C7
:1051A00000000000000000000000000000000000FF
:1051B0000000000000000000000000000FF81E3892
:1051C000180018001C000F8007F000F80038001CC1
:1051D00000181FF81FE000000000000000000000A1
:1051E00000000000000000000000000000000000BF
:1051F0000000000006000600060006007FFC7FFCA1
:10520000060006000600060006000600060006006E
:10521000070003FC01FC000000000000000000008B
:10522000000000000000000000000000000000007E
:10523000000000000000000000000000381C381CC6
:10524000381C381C381C381C381C381C381C383C9E
:10525000187C1FFC0F9C00000000000000000000F4
:10526000000000000000000000000000000000003E
:10527000000000000000000000000000700E300C74
:10528000381C18181C381C300C300E70066007E0F3
:1052900007C003C003C000000000000000000000C1
:1052A00000000000000000000000000000000000FE
:1052B0000000000000000000000000006006600622
:1052C00060066186718E73CE33CC32EC366C366CF0
:1052D0003C7C3C3C1C38000000000000000000004A
:1052E00000000000000000000000000000000000BE
:1052F000000000000000000000000000381C1C1826
:105300001C380E7007E003C003C003C007E00E7036
:105310001C38381C781E000000000000000000004F
:10532000000000000000000000000000000000007D
:10533000000000000000000000000000700E300CB3
:10534000381C18181C381C380E300E70066007E028
:1053500003E003C003C00380038007007E007C00DD
:10536000000000000000000000000000000000003D
:105370000000000000000000000000001FF81FF8FF
:105380000038007000E001C00380030007000E0039
:105390001C003FFC3FFC000000000000000000007B
:1053A00000000000000000000000000000000000FD
:1053B00000F801F8018003800380038003800380EC
:1053C000038003003F003C000F00030003800380C4
:1053D00003800380038003800380018001E000F8E4
:1053E000000000000000000000000180018001803A
:1053F00001800180018001800180018001800180A5
:105400000180018001800180018001800180018094
:105410000180018001800180018001800180018084
:10542000000000000000000000000000000000007C
:105430001E001F80018001C001C001C001C001C069
:1054400001C000C000FC003C00E000C001C001C081
:1054500001C001C001C001C001C0018007801F0060
:10546000000000000000000000000000000000003C
:10547000000000000000000000000000000000002C
:1054800000001E003F06738661FC60FC0000000007
:10549000000000000000000000000000000000000C
:1054A00000000000C4540008000000203800000084
:1054B000EC320008FC54000838000020784A000054
:1054C000FC32000800000000000000000024F4008E
:1054D00000000000010000001000000000000000BB
:1054E00006002003E001FFFF000000002C00002068
:0C54F000E43C0008100020000000000058
:040000050800018965
:00000001FF
