:020000040800F2
:1000000058050020A101000837120008D31000088D
:1000100035120008D1020008C915000800000000D0
:100020000000000000000000000000003B1200087B
:10003000D302000800000000391200083D12000839
:10004000BB010008BB010008BB010008BB010008A0
:10005000BB010008BB010008BB010008BB01000890
:10006000BB010008BB010008BB010008BB01000880
:10007000BB010008BB010008BB010008BB01000870
:10008000BB010008BB010008BB010008BB01000860
:10009000BB010008BB010008BB010008BB01000850
:1000A000BB010008BB010008BB010008BB01000840
:1000B000BB010008BB010008BB010008BB01000830
:1000C000BB010008BB010008BB010008BB01000820
:1000D000BB010008BB010008BB010008BD150008FA
:1000E000BB010008BB010008BB010008BB01000800
:1000F000BB010008BB010008BB010008BB010008F0
:10010000BB010008BB010008BB010008BB010008DF
:10011000BB010008BB010008BB010008BB010008CF
:10012000BB010008BB010008BB010008BB010008BF
:10013000BB010008BB010008BB010008BB010008AF
:10014000BB010008BB010008BB010008BB0100089F
:10015000BB010008BB010008BB010008BB0100088F
:10016000BB010008BB010008BB010008BB0100087F
:10017000BB010008BB010008BB0100080000000033
:10018000BB010008BB010008DFF810D000F08EF8BA
:100190000048004755160008AFF3008058050020BE
:1001A0000648804706480047FEE7FEE7FEE7FEE711
:1001B000FEE7FEE7FEE7FEE7FEE7FEE7D9120008EE
:1001C000890100082DE9F05F0546002092469B4614
:1001D00088460646814640241BE02846414647465D
:1001E000224600F053F853465A46C01A914110D3A4
:1001F00011461846224600F03AF82D1A67EB01081E
:100200004F4622460120002100F031F817EB00098B
:100210004E41201EA4F10104DFDC484631462A4647
:100220004346BDE8F09F40EA01039B0703D009E085
:1002300008C9121F08C0042AFAD203E011F8013BD2
:1002400000F8013B521EF9D27047D2B201E000F82B
:10025000012B491EFBD270470022F6E710B513466A
:100260000A4604461946FFF7F0FF204610BD202A33
:1002700004DB203A00FA02F1002070479140C2F1FD
:10028000200320FA03F3194390407047202A04DB2F
:10029000203A21FA02F00021704721FA02F3D040FF
:1002A000C2F120029140084319467047064C074DA1
:1002B00006E0E06840F0010394E807009847103436
:1002C000AC42F6D3FFF764FFEC1600080C170008E9
:1002D000FEE7704772B6FEE72DE9F0410446876DF0
:1002E00000F054F9064694F835000025022806D09F
:1002F0008020606584F834500120BDE8F0812068DA
:10030000016821F0160101602068416921F0800137
:100310004161206C08B9A06C20B12068016821F00F
:10032000080101602068016821F0010101600CE012
:1003300000F02CF9801B052807D9202060650320D8
:1003400084F8350084F83450D7E720680068C00787
:10035000EED194F85C103F208840B860012084F80A
:10036000350084F834500020C7E790F83510022992
:1003700003D08021416501207047052180F83510A8
:100380000068016821F00101016000207047000051
:100390002DE9F84FDFF8BCA10022012503264FF01C
:1003A0000F090AF1040BAAF1040E00BF0B6805FA4D
:1003B00002F42340A34270D10F7907F00307012F05
:1003C00001D0022F16D187684FEA420806FA08FCCE
:1003D00027EA0C07D1F80CC00CFA08FC4CEA070C11
:1003E000C0F808C04768A7430C79C4F300149440D0
:1003F0003C4344600C79E443A4070AD0C4684FEA44
:10040000420C06FA0CF7BC438F6807FA0CF7274337
:10041000C7600C7904F00304022C12D1D40800EB5D
:10042000840CDCF820405707FF0E09FA07F824EA8D
:100430000804D1F8108008FA07F848EA0408CCF854
:10044000208004684FEA420C06FA0CF7BC430F798F
:1004500007F0030707FA0CF7274307604C6814F40A
:10046000403F70D03C4C276847F4804727602468A1
:1004700022F0030704F480440094384C07EB040C8A
:10048000DCF8084897074FEA177809FA08F7BC43E1
:10049000334FB84202D1002724E054E0314FB84234
:1004A00001D101271EE0304FB84201D1022719E0E7
:1004B0002E4FB84201D1032714E02D4FB84201D18D
:1004C00004270FE02B4FB84201D105270AE02A4F3D
:1004D000B84201D1062705E0284FB84201D10727CD
:1004E00000E0082707FA08F72743CCF80878DAF87D
:1004F00000405746D1F804C09C435FEACC2C00D59D
:100500001C433C60DBF800405F46D1F804C09C43CC
:100510005FEA8C2C00D51C433C60DEF80040774637
:10052000D1F804C09C435FEA8C3C00D51C433C607E
:10053000084F083F3C68D1F804C09C435FEACC3CBC
:1005400000D51C433C60521C102AFFF42FAFBDE8BD
:10055000F88F0000083C0140443802400030014060
:10056000000002400004024000080240000C02406B
:10057000001002400014024000180240001C02401B
:100580000AB1816170470904FBE7000001488068F7
:10059000704700000800002002488168027811447A
:1005A00081607047080000200B4810B5016841F4D5
:1005B00000710160016841F480610160016841F4EB
:1005C00080710160032000F06FF80F2000F006F842
:1005D00000F024F8002010BD003C024070B50D4D25
:1005E00004464FF47A712878B1FBF0F00A490968A3
:1005F000B1FBF0F000F00CFB48B9102C07D2002240
:100600002146501E00F030F800206C6070BD0120C3
:1006100070BD000008000020000000200A4808B556
:10062000016841F480410160006800F4804000905E
:100630000548001F016841F080510160006800F02A
:100640008050009008BD000044380240002809DBBB
:1006500000F01F02012191404009800000F1E020DC
:10066000C0F8001170470000F0B40E4B1B680C4638
:10067000C3F30223C3F10705042D00D90425191D76
:10068000072901D2002300E0DB1E012606FA05F14E
:10069000491E214099409E40761E16403143F0BCD1
:1006A00000F09CBF0CED00E0064900F0070208686E
:1006B0004FF6FF03184040EA0220034A1043086047
:1006C000704700000CED00E00000FA052DE9F0474E
:1006D0000E46050065D0DFF81481D8F80000F7B2A7
:1006E00000F00700B04207D288F80070D8F8000088
:1006F00000F00700B04254D128683D4C810712D564
:10070000400703D5206840F4E050206028780007B7
:1007100003D5206840F4604020602068A96820F07C
:10072000F000084320602878C0072DD03049686861
:100730000839012812D0022813D0032811D00968E3
:10074000890700292DDA216821F003010143216086
:10075000FFF71CFF814641F2883A0EE009688903E1
:10076000EFE709688901ECE7FFF710FFA0EB09014B
:10077000514502D90320BDE8F0872068696800F080
:100780000C00B0EB810FEFD1D8F80010404601F01B
:100790000701B14207D90770006800F00700B042B6
:1007A00001D00120E7E72878400705D52068E968EF
:1007B00020F4E050084320602878000706D5206820
:1007C000296920F4604040EAC100206000F038F858
:1007D0002168084AC1F30311515CC840064908600A
:1007E00006480068FFF7FAFE0020C4E7003C02401C
:1007F00008380240D4160008000000200C00002039
:100800000448054900680968044AC1F38221515C23
:10081000C84070470000002008380240E416000875
:100820000448054900680968044AC1F34231515C33
:10083000C84070470000002008380240E416000855
:10084000154810B5006810F00C02144813D0144974
:10085000042A0FD0082A0ED10F4C241F22682368C7
:1008600002F03F025B0207D52068C0F38810A0FBAE
:10087000010106E0084610BD2168C1F38811A1FB03
:1008800000010023FFF79EFC2168C1F30141491CD0
:100890004900B0FBF1F010BD083802400024F4001C
:1008A00040787D012DE9F84F04006ED02078DFF804
:1008B0004C93C007A9F104054AD009F1040001686E
:1008C000C1F38101012908D00068C0F3810002282A
:1008D0000AD1D9F80000400206D52868800337D530
:1008E00060680028E1D033E06068B0F5803F10D048
:1008F000B0F5A02F286810D020F480302860286838
:1009000020F4802028606068A8B1FFF73FFE06460B
:100910000DE0286840F48030F4E740F4802028603F
:10092000F7E700BFFFF732FE801B642873D8286802
:100930008003F7D50CE0FFF729FE064605E000BF6F
:10094000FFF724FE801B6428F0D828688003F7D4C2
:100950002078DFF8AC8280074FF0000A3ED5A74828
:10096000001D016811F00C0F08D00068C0F3810071
:1009700002280BD1D9F80000400207D4286880076C
:1009800016D5E068012800D112E033E1E068B8B183
:100990000120C8F80000FFF7F9FD064605E000BF9A
:1009A000FFF7F4FD801B0228C0D828688007F7D520
:1009B0002868216920F0F80040EAC10028600DE0B5
:1009C000C8F800A0FFF7E2FD064604E0FFF7DEFDF1
:1009D000801B02281FD828688007F7D420780007DA
:1009E00022D5864F87486169703771B10121016056
:1009F000FFF7CCFD064604E0FFF7C8FD801B022888
:100A000009D838688007F7D50EE0C0F800A0FFF7D6
:100A1000BDFD064605E082E0FFF7B8FD801B022819
:100A20007DD838688007F7D42078400768D5DFF88C
:100A3000CCB100270BF13C0BDBF80000C0000BD45D
:100A4000DBF8001041F08051CBF80010DBF800001B
:100A5000012700F0805000906B4E3068C00510D424
:100A6000306840F480703060FFF790FD009005E042
:100A7000FFF78CFD0099401A022850D83068C00555
:100A8000F6D55E4EA0686C3601280FD00528306878
:100A900010D020F001003060306820F00400306099
:100AA000A068B8B1FFF772FD00900FE0306840F029
:100AB0000100F4E740F004003060F7E7FFF766FD5F
:100AC0000099411A41F28830814266D83068800727
:100AD000F4D50EE0FFF75AFD009007E0FFF756FD52
:100AE0000099411A41F28830814256D83068800717
:100AF000F4D42FB1DBF8001021F08051CBF80010B6
:100B0000A069C8B33D49091D0968C1F381010229E3
:100B10004AD00228504607D0C8F8600000E03CE008
:100B2000FFF734FD04463BE04746C8F86000FFF796
:100B30002DFD064605E000BFFFF728FD801B0228BB
:100B40002BD828688001F7D4D4E907010843A16AAB
:100B50002E4A490802EB0141626A41EA82110843C8
:100B600094F82C1040EA0161C9F8001001203866A1
:100B7000FFF70CFD044606E03EE000BFFFF706FD70
:100B8000001B022809D828688001F7D534E000BF8F
:100B9000FFF7FCFC001B022802D90320BDE8F88FF8
:100BA00028688001F4D427E00128F7D0D9F80000A4
:100BB000E26900F4800191421CD1226A00F03F01F9
:100BC000914217D147F6C071626A0140B1EB821FB2
:100BD00010D1A26A4FF0FF3300F4403103EB520210
:100BE000B1EB024F06D194F82C1000F07060B0EB1E
:100BF000016F01D00120D1E70020CFE70438024087
:100C000000004742800E4742007000400000FFFF96
:100C100010B5401EB0F1807F01D3012010BD4FF010
:100C2000E02460610F21601700F0D8FC0020A06173
:100C300007202061002010BD70477047F8B501689B
:100C400004460868CA684B6910F00F0F4FF00005A2
:100C500059D003F0010602F49077374365D0C107FD
:100C600005D0D10503D5616C41F0010161644107F4
:100C700005D5D90703D0616C41F002016164810799
:100C800005D5D90703D0616C41F004016164010707
:100C900007D502F02001314303D0616C41F0080117
:100CA0006164616C00293AD0800604D5900602D5B3
:100CB000204600F047FB20684069616CC0F380105B
:100CC000090700D460B3204600F015FB2068406996
:100CD000400621D52068143050E8001F21F0400163
:100CE00040E80012002AF5D1E06BA8B17249016515
:100CF000E06BFFF73AFB002811D0E06B016D01B00B
:100D0000BDE8F040084783060FD593060DD5204671
:100D1000BDE8F84000F016BB2046FFF78EFFF8BD97
:100D20002046FFF78AFF6564F8BD266B2023012E5D
:100D30007ED1C6067CD5D6067AD50868486800906C
:100D400048694FF0020640064DD5E26B10684068D6
:100D50004FF480770004000C3AD0A18D814237D93E
:100D6000E085D069B8422DD020680C3050E8001FD3
:100D700021F4807140E80012002AF5D12068143077
:100D800050E8001F21F0010140E80012002AF5D1CF
:100D90002068143050E8001F21F0400140E80012A4
:100DA000002AF5D184F84230256320680C3050E8E1
:100DB000001F21F0100140E80012002AF5D1E06B7D
:100DC000FFF78AFA6663A08DE18D401A81B206E0D2
:100DD000A18D8142A8D1D069B842A5D166632046D1
:100DE000FFF72AFFF8BDA08DE18D401A81B2E08D9A
:100DF0000028F7D00029F5D020680C3050E8002FEB
:100E000022F4907240E80027002FF5D120681430BA
:100E100050E8002F22F0010240E80027002FF5D112
:100E200084F84230256320680C3050E8002F00E041
:100E300006E022F0100240E80023002BF3D1CDE7BA
:100E400005062BD5150629D594F841002128C9D1CE
:100E5000A068B0F5805F01D12069B0B1206A411C63
:100E60002162216800784860E08C401E0004000C7C
:100E7000E084B7D12068C16821F08001C16020689A
:100E8000C16841F04001C160F8BD206A0088C0F32C
:100E900008004860206A801C2062E5E74006F3D520
:100EA0005006F1D5CA68204622F04002CA6084F894
:100EB000413000F00DF9F8BDE912000870B50400EA
:100EC00004D094F84100002510B106E0012070BD67
:100ED00084F84050204600F023F8242084F8410094
:100EE0002068C16821F40051C160204600F08CFAEE
:100EF0002068016921F4904101612068416921F075
:100F00002A0141612068C16841F40051C1606564F3
:100F1000202084F8410084F842006563002070BD01
:100F200070B586B0044614216846FFF795F9284E3F
:100F3000226800212748022303240725B2421DD13D
:100F4000244A1432166846F010061660126802F041
:100F500010020592026842F001020260006802AAD3
:100F600000F00100059082E832006002CDE9000344
:100F700069461948FFF70CFA06B070BD174EB24229
:100F8000FAD1144A1032166846F4802616601268A8
:100F900002F480220592026842F0020202600068B8
:100FA00002AA00F00200059082E832004FF440608F
:100FB000CDE9000369460A48FFF7EAF90022114625
:100FC0002720FFF751FB2720FFF740FBD4E7000065
:100FD000001001403038024000000240004800404C
:100FE0000004024090F84230202B01D002207047CC
:100FF00021B11AB10023036300F08CBA01207047BD
:1010000010B50068074988420AD10748007800F007
:1010100061F8BDE81040012203490448FFF7E2BF30
:1010200010BD0000004800400600002060000020C5
:101030002DE9F843044690F84100984616460D46BF
:10104000202802D00220BDE8F88385B17EB10020BF
:101050006064212084F84100FFF798FAA684814655
:10106000E684A0682027B0F5805F02D003E001206D
:10107000E9E7206910B12E4600250EE000260CE0BD
:101080008021204600F061FAA8B9C6B116F8010B1C
:1010900021684860E08C401EE084E08C4B464FF0B5
:1010A0000002CDF800800028EAD14FF04001204630
:1010B00000F04BFA40B184F841700320C3E735F8E3
:1010C000020BC0F30800E3E784F841700020BAE7A0
:1010D0007047FEE770B5104C0E4900252278885401
:1010E000521CD0B22070802801D3257070BD2C28EE
:1010F000FCD30A1852F8042CB2F1FF4FF6D12C3869
:10110000C0B2014403482C228030FFF78CF8012044
:101110006070EAE7A800002004000020064841783B
:10112000002907D00021417064232C220349044880
:10113000FFF77EBF70470000040000202801002058
:101140001800002070B586B014216846FFF784F8B7
:101150001A480024016841F020010160016801F093
:1011600020010591016841F080010160016801F0F2
:1011700080010591016841F002010160016801F000
:1011800002010591016841F00101016000680C4E07
:1011900000F001004FF4E075059001222946304629
:1011A000FFF7EEF901200095CDE9010469463046CC
:1011B0000394FFF7EDF806B070BD00003038024030
:1011C000001402400C4810B50A4901604FF4E131A7
:1011D0004160002181600C22C160C0E9041281617C
:1011E000C161FFF76BFE002803D0BDE81040FFF798
:1011F00071B810BD00100140180000200C4810B557
:101200000A4901604FF416514160002181600C22AF
:10121000C160C0E904128161C161FFF74FFE00287F
:1012200003D0BDE81040FFF755B810BD004800409E
:1012300060000020FEE7FEE770477047FFF7ACB99B
:1012400030B593B030216846FFF706F814210CA89A
:10125000FFF702F81E480025016841F08051016047
:10126000006800F0805011901A48016841F48041F4
:1012700001600068022400F4804011900120009079
:10128000000401908001CDE90640192008904FF438
:10129000A870CDE9090404200B906846FFF702FB13
:1012A00008B172B6FEE70CA90F2081E831004FF4B7
:1012B000A0500F904FF48050109005210CA8FFF71C
:1012C00005FA002801D072B6FEE713B030BD000069
:1012D00040380240007000400248016841F470014B
:1012E0000160704788ED00E010B5806B0021C1857A
:1012F000FFF7A3FC10BD01680C3151E8002F22F468
:10130000907241E80023002BF5D10168143151E8B7
:10131000002F22F0010241E80023002BF5D1016BE0
:10132000012909D101680C3151E8002F22F0100287
:1013300041E80023002BF5D1202180F84210002144
:101340000163704708B590F84210222901D00220AD
:1013500008BD82684FF480539A4201D1016921B1DE
:10136000816A9A421BD04AB10AE00268816A5268D7
:10137000C2F308020A80816A891C08E0026972B11E
:101380000268526802F07F020A70816A491C816219
:10139000C18D491E0904090CC18503D01BE00268F8
:1013A0005268F1E70168CA6822F02002CA60016849
:1013B000CA6822F48072CA6001684A6922F0010298
:1013C0004A61202180F8421000214163026B012A0A
:1013D00003D0FFF715FE002008BD016301680C3142
:1013E00051E8002F22F0100241E80023002BF5D134
:1013F00001680A68D20602D50A6849680091818DA1
:10140000FFF71AFCE7E7000070B5044600680169C1
:10141000E26821F44051114301612169A068E26949
:1014200008436169114308432168CA6849F20C63A3
:101430009A430243CA6020684169A26921F440715D
:101440001143416131492068884202D030498842C5
:1014500002D1FFF7E5F901E0FFF7D2F9E2690023D5
:10146000192164253226B2F5004F626828D0A0FB0E
:101470000101930F9200FEF7A5FE0146B0FBF5F0C7
:101480006FF01802504301EB800006EB0010B0FB38
:10149000F5F000F0F002B1FBF5F002EB0012B1FB49
:1014A000F5F06FF01803584301EB800006EB0010D5
:1014B000B0FBF5F000F00F0021681044886070BDAB
:1014C000A0FB010192185B41FEF77CFE0146B0FBD8
:1014D000F5F00201B1FBF5F06FF01803584301EB92
:1014E000800006EBC000B0FBF5F000F0F80002EB66
:1014F0004002B1FBF5F0584301EB800006EBC00061
:10150000B0FBF5F000F00700D6E700000010014046
:101510000014014081628285C2850021416422213C
:1015200080F84210016921B10168CA6842F48072F2
:10153000CA6001684A6942F001024A610068C168F4
:1015400041F02001C160002070472DE9F843984622
:1015500017460D460446089E24E0701C22D0FFF773
:1015600015F8A0EB0800B0421AD8CEB12068C168C7
:10157000490717D5802D15D0402D13D00168C943D8
:1015800009070FD401680025406800902046FFF746
:10159000B2FE0820606484F840500120BDE8F88362
:1015A0000320FBE72068006835EA000004D0002033
:1015B000B842D2D00020F1E70120F9E70148FFF757
:1015C0003DBB000060000020FEE70000014A024928
:1015D00000F023B83D160008140000200907090E8A
:1015E000002804DB00F1E02080F80014704700F0D0
:1015F0000F0000F1E02080F8141D704702E008C8D9
:10160000121F08C1002AFAD170477047002001E07C
:1016100001C1121F002AFBD170472DE9F041164687
:101620000F460446002503E03946B047641C6D1C94
:1016300020780028F8D12846BDE8F08113B54FF690
:10164000FF73012269460248FFF7F2FC00981CBDB7
:1016500018000020FEF7A8FFFFF7F2FDFFF772FD6C
:10166000FFF7B0FDFFF7CAFD07A0FFF7AFFF0FA020
:10167000FFF7ACFF012215491548FFF7B3FC00BF87
:10168000FFF74CFDFCE7000053544D333246343035
:1016900037204C6F52612052656365697665722010
:1016A0005265616479210D0A0000000055415254D1
:1016B00031202D3E2050432C205541525433202DB3
:1016C0003E204C6F52610D0A000000000600002011
:1016D0006000002000000000000000000102030480
:1016E0000607080900000000010203040C170008A7
:1016F0000000002018000000FC1500082417000856
:1017000018000020400500000C1600080024F4001A
:1017100000000000010000001000000000000000B8
:0417200000000000C5
:040000050800018965
:00000001FF
